:020000040001F9
:10C0000000000120E9C20100F5C20100F7C20100F1
:10C01000F9C20100FBC20100FDC2010000000000E6
:10C02000000000000000000000000000FFC201004E
:10C0300001C301000000000003C3010005C30100AB
:10C0400007C3010007C3010007C3010007C30100C4
:10C0500007C3010007C3010007C3010007C30100B4
:10C0600007C3010007C3010007C3010007C30100A4
:10C0700007C3010007C3010007C3010007C3010094
:10C0800007C3010007C3010007C3010007C3010084
:10C0900007C3010007C3010007C3010007C3010074
:10C0A00007C3010007C3010007C3010007C3010064
:10C0B00007C3010007C301000000000000000000EA
:10C0C00007C3010007C3010007C3010007C3010044
:10C0D00007C3010007C3010007C3010000F002F815
:10C0E00000F0B8F80AA090E8000C82448344AAF15A
:10C0F0000107DA4501D100F0ADF8AFF2090EBAE858
:10C100000F0013F0010F18BFFB1A43F0010318478B
:10C1100050F0000070F000000A444FF0000C10F8DE
:10C12000013B13F0070408BF10F8014B1D1108BFB5
:10C1300010F8015B641E05D010F8016B641E01F855
:10C14000016BF9D113F0080F1EBF10F8014BAD1CA5
:10C150000C1B09D16D1E58BF01F801CBFAD505E0C3
:10C1600014F8016B01F8016B6D1EF9D59142D6D31D
:10C17000704700000023002400250026103A28BF45
:10C1800078C1FBD8520728BF30C148BF0B60704749
:10C190006E2900F0E886702900F0958266290EF07D
:10C1A000C78365290EF0C48367290EF0C183612916
:10C1B0000EF0C08303681B0A28BF41F08001692983
:10C1C00000F00682642900F00382752900F00082E5
:10C1D0006F2901F0F681782900F06182E92901F0E8
:10C1E0009181E42901F08E81F52901F08B81EF29FD
:10C1F00001F0F381F82900F060820368DB0928BFB1
:10C2000041F08001632901F00081732901F005816B
:10C21000E32901F0F987F32901F0FE870020704738
:10C220001FB50EF04CFB9DE8030000F0FBFD01F094
:10C23000BFFD0400002000210DF000FD401C6060E7
:10C24000002000210DF0E4FCE06001F0F5FC00F0BE
:10C25000A9FD1FBD09F0B6FD114603B409F0C6FDE6
:10C2600003BCFFF7DDFF02F057FD0AF097FA00006C
:10C27000401E00BF00BF00BF00BF00BF00BF00BF27
:10C2800000BF00BF00BF00BF00BF00BF00BF00BFB6
:10C2900000BF00BF00BF00BF00BF00BF00BF00BFA6
:10C2A00000BF00BF00BF00BF00BF00BF00BF00BF96
:10C2B00000BF00BF00BF00BF00BF00BF00BF00BF86
:10C2C00000BF00BF00BF00BF00BF00BF00BF00BF76
:10C2D00000BF00BF00BF00BF00BF00BF00BF00BF66
:10C2E00000BFC5D170470000074880470748804716
:10C2F00007480047FEE7FEE7FEE7FEE7FEE7FEE74A
:10C30000FEE7FEE7FEE7FEE711F001009D85020073
:10C31000DDC0010000487047D842002070B50646D5
:10C3200000F064FD056806F10B0020F00704B4423C
:10C330009CBF002070BD2B466A68BAB11068A0424D
:10C3400010D304F1080188423CBF5068586007D3FD
:10C350005168101941601168091B01605860146030
:10C36000101D70BD13465268002AE7D121462846A9
:10C3700000F044FD0028DED170BD70B50446051FF5
:10C3800000F034FD0068002C14BF446870BD002C20
:10C3900018BFAC423CBF20466468F8D301680A1855
:10C3A000AA4218BF456003D12A68054611440160BE
:10C3B00028684119A1421CBF6C6070BD616869604A
:10C3C00021680844286070BD53EA020C00F06980BF
:10C3D0002DE9F04B4FF00006002B1FBFB3FA83F599
:10C3E00003FA05F424FA05F65E4012BF1643B2FACA
:10C3F00082F502FA05F4C5F120051EBF22FA05FCFC
:10C4000044EA0C04203556EA044C4FEA144418BFA1
:10C41000641C4FF000084FF00009904271EB030CD0
:10C4200039D3002919BFB1FA81F701FA07F6B0FA3A
:10C4300080F700FA07F6C7F120071EBF20FA07FCB5
:10C4400046EA0C062037B6FBF4FCA7EB0507103FC5
:10C4500007F01F0BCBF120060CFA0BFB2CFA06F6AB
:10C4600044BFB3460026202FA4BF5E464FF0000B0A
:10C470005BEA060C08BF4FF0010B19EB0B09ABFB95
:10C48000027C48EB0608C01B06FB02CC0BFB03CC6E
:10C4900071EB0C01C1E70B46024641464846BDE838
:10C4A000F08B13B54FF000004FF00001AFF30080A8
:10C4B000BDE81C40704700007CB51D4616460C00C8
:10C4C000009001D02044401E074B7B442A46694619
:10C4D0000190304600F06FFF05461CB10020694610
:10C4E00000F07CFF28467CBD190F00000FB4044902
:10C4F00010B503AA029800F095FF10BC5DF814FB7C
:10C50000304300200FB41CB5084B06AA7B44694693
:10C510000090059800F04FFF04460020694600F0A7
:10C520005DFF20461CBC5DF814FB0000CD0E000032
:10C5300070B5044685690068C10601D5302600E063
:10C540002026C00707D070BDD4E9012130469047AE
:10C55000206A401C20626D1EF6D570BD70B5044681
:10C5600085690078C00707D170BDD4E9012120207A
:10C570009047206A401C20626D1EF6D570BD70B5D4
:10C580000C460546012A05D02878800600D5EA69C0
:10C59000002302E0012305E05B1C934202D2E05C31
:10C5A0000028F9D1A869E618C01AA861286A1844B9
:10C5B00028622846FFF7BCFF04E0D5E9012114F802
:10C5C000010B9047B442F8D32846FFF7C7FF70BD70
:10C5D0002DE9F0410646002410687529314616A55C
:10C5E00010D000F055FC002802DA404213A507E005
:10C5F00031688A0701D512A502E0490704D511A5C3
:10C60000012401E000F04DFC00210A2206F124077C
:10C6100009E0B0FBF2FCB0FBF2F302FB1C0030308F
:10C6200078541846491C0028F3D123462A46304640
:10C63000BDE8F04100F03EBC000000002D0000000D
:10C640002B00000020000000F0B40D460188090511
:10C6500002D5214C7C4402E01F4C7C440E34002166
:10C6600000F1240608E002F00F071209E75D42EA34
:10C6700003721B097754491C52EA0307F3D102786D
:10C680000023120704D5702D06D009B102231134FE
:10C690002246F0BC00F00EBC01231034F8E770B560
:10C6A00004460D462146106800F0FBFB0246294671
:10C6B0002046BDE870400023C6E7D21D22F00703E4
:10C6C000D3E90023C0E70368126843F02003036046
:10C6D0000823C3610023B7E79CE400002DE9F05F65
:10C6E000894604464FF0000ADFF874B1FB44C0F8F5
:10C6F00020A02046E1688847002874D0252806D06D
:10C70000D4E901219047206A401C2062F1E700260D
:10C710005F462046E16888472028054607DB312D23
:10C7200005D2781910F8200C08B10643F1E7B007DC
:10C7300001D526F00406C4F81CA00027C4F818A0F0
:10C740002A2D09D0284609F041FB38B304EB8708AD
:10C75000303DC8F8185019E059F8041B204604EB86
:10C7600087029161E1688847012F054618D1E06989
:10C77000002820DA26F020061DE0D8F8180000EB8B
:10C78000800005EB40003038C8F818002046E1680A
:10C790008847054609F01AFB0028EED1012F0AD080
:10C7A0002E2D08D12046E16888477F1C0546022FC0
:10C7B00046F02006C4DBA069002803DA404246F0B8
:10C7C0000106A061F00701D026F010066C2D0BD0F9
:10C7D000682D09D04C2D39D06A2D35D0742D35D027
:10C7E0007A2D33D016E038E0E1682F46204688479E
:10C7F000B842054609D16C2F26D04FF48060E1681D
:10C80000064320468847054604E06C2F1AD04FF4B3
:10C81000807006430DB3A5F14100192802D82035D8
:10C8200046F400664A462946204626604E46FFF7F3
:10C83000AFFC80B101280BD0F61D26F0070000F1F7
:10C84000080956E74020E4E78020D8E70020D6E733
:10C8500006F104094DE7284652E7206ABDE8F09F3B
:10C860002CE4000070B50446C068810713D0800630
:10C8700001D5A56A04E0A169606808442169451AE8
:10C88000204601F095F9002206462946204601F08F
:10C89000BBF8304670BD002070BD70B510B1BDE86A
:10C8A0007040DFE70025074C6E1E07E02046FFF7CB
:10C8B000D9FF00B13546206D20F00104002CF5D1E0
:10C8C000284670BDDC42002070B50D46044604E0E9
:10C8D000294609F074FF401C04D014F8010B00280D
:10C8E000F6D170BD4FF0FF3070BD09F05CBF09F0AC
:10C8F00066BF00002DE9F0410C460746164610467B
:10C9000000F078F82078611C61280AD0722802D0E3
:10C9100077283CD102E00125002405E0022504240B
:10C9200002E0082448F2020511F8010B2B2806D07A
:10C93000622809D011F8010C74280AD00BE045F0E8
:10C94000030544F00204EFE745F0040544F0010458
:10C95000EAE744F010043846214609F0B7FA411CD2
:10C9600015D00021316171604FF40071F560F16103
:10C970007061200704D530460222002101F044F8FE
:10C98000306D40F0010030653046BDE8F081002098
:10C99000FBE72DE9F0410D460646104C206DC1071E
:10C9A00004D0410804D020F00104F7E722460EE04D
:10C9B0005420FFF7B3FC07000ED0206D47F00101B3
:10C9C000084354212065384600F085F93A46294647
:10C9D0003046BDE8F0418DE70020D6E7DC4200207C
:10C9E00011B14FF4807201E04FF480624FF4007394
:10C9F00001F086B82DE9F04704464FF000094FF0EA
:10CA0000FF37C568D4E90486A80707D0204601F09F
:10CA1000CFF8304609F0EEF9002802DA3846BDE8D2
:10CA2000F087280502D54046FFF7A7FC4C21204699
:10CA300000F051F9206D20F0010020654846EEE736
:10CA40000EB5054614460E4613A001F0EBFC284631
:10CA500001F0E8FC16A001F0E5FC304601F0E2FC34
:10CA600015A001F0DFFC00218DF80B100A210DF15B
:10CA70000A008DF80A1008E094FBF1F201FB124263
:10CA800094FBF1F4303200F8012D002CF4DC01F0BD
:10CA9000C9FC01F06DF900002A2A2A206173736530
:10CAA0007274696F6E206661696C65643A2000007B
:10CAB0002C2066696C6520002C206C696E65200056
:10CAC00010B5431C02E010F8011B71B18107FAD1C7
:10CAD0004FF0013202C88C1A8C4314EAC211F9D00B
:10CAE000C01A0A0603D0C01E10BDC01A10BD0A0429
:10CAF00001D0801E10BD0902FCD0401E10BD40EACE
:10CB0000010370B59B072ED14FF00136042A2AD3BA
:10CB100008C810C99D1B9D43121F15EAC61517D0E2
:10CB2000D8B2E1B2401A50EA056110D198B2A1B270
:10CB3000401A50EA05410AD123F07F4024F07F419A
:10CB4000401A50EA052102D1180EA0EB146070BD06
:10CB5000A342DBD018BA21BA884201D9012070BDA6
:10CB60004FF0FF3070BD0AB9002070BD10F8013BD6
:10CB700011F8014B63B1A3420AD1521E08D010F83C
:10CB8000013B11F8014B1BB1A34201D1521EEDD163
:10CB9000181B70BD032A40F2308010F0030C00F027
:10CBA000158011F8013BBCF1020F624498BF11F8E7
:10CBB00001CB00F8013B38BF11F8013BA2F10402A0
:10CBC00098BF00F801CB38BF00F8013B11F0030318
:10CBD00000F02580083AC0F0088051F8043B083A7C
:10CBE00051F804CBA0E80810F5E7121D5CBF51F81E
:10CBF000043B40F8043BAFF30080D20724BF11F898
:10CC0000013B11F801CB48BF11F8012B24BF00F8FC
:10CC1000013B00F801CB48BF00F8012B704710B56D
:10CC2000203AC0F00B80B1E81850203AA0E8185024
:10CC3000B1E81850A0E81850BFF4F5AF5FEA027CE5
:10CC400024BFB1E81850A0E8185044BF18C918C054
:10CC5000BDE810405FEA827C24BF51F8043B40F8F5
:10CC6000043B08BF7047D20728BF31F8023B48BFDA
:10CC700011F8012B28BF20F8023B48BF00F8012B18
:10CC8000704702F0FF0343EA032242EA024200F047
:10CC900002B84FF000020429C0F0128010F0030C1B
:10CCA00000F01B80CCF1040CBCF1020F18BF00F89F
:10CCB000012BA8BF20F8022BA1EB0C0100F00DB84E
:10CCC0005FEAC17C24BF00F8012B00F8012B48BFAC
:10CCD00000F8012B70474FF0000200B51346944650
:10CCE0009646203922BFA0E80C50A0E80C50B1F1C4
:10CCF0002001BFF4F7AF090728BFA0E80C5048BFD8
:10CD00000CC05DF804EB890028BF40F8042B08BF75
:10CD1000704748BF20F8022B11F0804F18BF00F871
:10CD2000012B70474FF0013C50F8042B51F8043BA5
:10CD30009A4221D1A2EB0C03934313EACC1317D1EF
:10CD400050F8042B51F8043B9A4215D1A2EB0C0386
:10CD5000934313EACC130BD150F8042B51F8043B46
:10CD60009A4209D1A2EB0C03934313EACC13DBD014
:10CD70004FF00000704700BFD01A01BAB1FA81F13C
:10CD800001F0180122FA01F0CB40C1F12001DBB221
:10CD9000C0B2C01A2CFA01F3D11A914311EAC3119F
:10CDA000E6D1704770B5064C7C44064D7D4403E0E7
:10CDB000206820448047241DAC42F9D170BD00009A
:10CDC00000E5000058E500002DE9F04117460E4649
:10CDD000054633B107FB0354E41B2046B047A54288
:10CDE000FAD1A5F10800BDE8F081000000487047C5
:10CDF000D8430020704770477047704738B50446E5
:10CE00000A460020694601F024FB002808BF38BD0F
:10CE100002460099204600F0CFFF012038BD0120D6
:10CE200001F0E1BAF8B501F009FB054600200C4617
:10CE3000102000BF0646A819A0420DD93246694607
:10CE4000002001F006FB070008BF01F0CCFA0098B3
:10CE5000A04218BF0546C419FFF7C8FF0560074682
:10CE6000F01D20F007004619284600F00AF8B442E9
:10CE700008BFF8BDA21B31463868BDE8F84000F095
:10CE80009BBF00210160C0E901107047102070476E
:10CE900009684A0501D540B27047C905FCD500B202
:10CEA000704709684A0501D5C0B27047C905FCD56D
:10CEB00080B270472DE9F0470D46994692460446E8
:10CEC00000F124080168880604D5E06921F010010A
:10CED000216000E00120A84201DD471B00E000279F
:10CEE000A1697A1902EB0900081AA0612078C0062E
:10CEF00002D42046FFF71CFB002608E0D4E90121FC
:10CF00001AF806009047206A401C761C20624E45A5
:10CF1000F4DB2078C0060AD52046FFF709FB06E0BF
:10CF2000D4E9012130209047206A401C2062381E3D
:10CF3000A7F10107F4DC07E0D4E9012118F80500A6
:10CF40009047206A401C2062281EA5F10105F3DCF1
:10CF50002046FFF703FB2078000602D50220BDE83B
:10CF6000F0870120FBE711680268006A530501D5CC
:10CF700008700AE0D30501D5088006E0130603D542
:10CF8000C217C1E9000200E0086001207047704745
:10CF90002DE9FF4F0C461E464FF0FF378BB0D2E90C
:10CFA0000001DDF860800A908A46C1F30A5505B990
:10CFB0003D46002108464FF00000BAF1000F00F492
:10CFC000400005DA00EB80004FF4400101EA500018
:10CFD0004FEA9059B9F1010F00DDB9460A9850EABD
:10CFE0004A000ED044F61050A5F2FF3545432F14E9
:10CFF000B8F1000F1ED07542291E1EDDC9F10002D6
:10D000001CE0B8F1010F4FF0000001D0302103E027
:10D01000F24305E02154401CB042FBDB30460022C5
:10D02000002121540B99C1F80880C1E900200FB0FC
:10D03000BDE8F08FBD1B6D1CDEE74A4600DA694291
:10D0400006A801F0EDF806AB93E8070003AB83E810
:10D05000070050460A9901F097FA8DE80700A0F5FD
:10D0600000501F3800900398002D0ADD42F21F0186
:10D070004A460844002303A90390684601F000FDD6
:10D0800009E0A0F500504A461F38002303A9039089
:10D09000684601F00AFD8DE807000004000C03D08B
:10D0A0004FF0FF30410800E01046B8F1000F03D008
:10D0B0000022009215461EE0751E05D400F096FE73
:10D0C000303262556D1EF9D5B3460122084302D0B5
:10D0D00000227F1C04E02078302801D100227F1E2E
:10D0E000002A099784D01DE0112D07DA00F07EFE9A
:10D0F000303262556D1C50EA0102F5D1084302D06E
:10D100000098C8B10EE00021681E05E0235C625C57
:10D1100063542254401E491C8142F7DBAB46A81BD6
:10D12000401E0990002004F80B000B98099AC0F8E3
:10D130000880C0E9002B7AE711264FF0000857E776
:10D140002DE9F04F88460446D21D22F0070191B028
:10D15000D1E90001CDE90A0108F0B3FA02460B98C3
:10D16000C00F01D02D2007E02068810701D52B20BA
:10D1700002E0202101EAC000032A099001D0072A19
:10D1800005DB03464146204600F0F4FF0BE1207822
:10D19000800601D5E06900E00620B8F1650F814600
:10D1A00006D0B8F1660F18D0B8F1670F70D131E032
:10D1B0000020B9F1110F009001DB112301E009F10A
:10D1C00001030AAA01A90CA8FFF7E2FEDDE90C7031
:10D1D000002609F10105834647E001204B460090F7
:10D1E0004FF000470AAA01A90CA8FFF7D1FEDDE91C
:10D1F0000DB00C995D46002610B909F101000D181B
:10D20000B9EB050003D4C0F1FF3609F10105A5EB28
:10D2100009002BE0B9F1010F01DA4FF001090020FC
:10D22000B9F1110F0090484601DD112300E00346DB
:10D230000AAA01A90CA8FFF7ABFEDDE90C704D4668
:10D2400000268346207800070AD4AB4500DA5D4605
:10D2500001A8012D04DD411911F8011C302907D066
:10D260004F4502DA17F1040F04DA012082460FE07D
:10D270006D1EEEE7002F02DCED1B3E4403E0781C40
:10D28000A84200DD7D1CB81B00F1010A4FF00047E9
:10D290002078000703D4AA4501DB4FF0FF3A0021B4
:10D2A000B7F1004F0DF143088DF8431024D0022050
:10D2B0002B23002F01DA7F422D230A21021EA0F129
:10D2C000010000DC5FB197FBF1FC97FBF1F201FB81
:10D2D0001C7C17460CF1300C08F801CDEEE7A8F1E4
:10D2E000010003702188090501D5452100E0652171
:10D2F000A0F1010800F8011C09980FA9A1EB08078B
:10D30000FF1D00B10120411901EBEA70A169384409
:10D31000081A401EA0612078C00602D42046FFF7FC
:10D3200007F9099828B1D4E901219047206A401CE7
:10D3300020622078C00622D52046FFF7F9F81EE0CB
:10D34000002E04DBB34502DD01A8805D00E0302043
:10D35000D4E901219047206A401C2062761CAAF182
:10D3600001005FEA000A0AD100F022FDC0680168EE
:10D37000405CD4E901219047206A401C2062281EAD
:10D38000A5F10105DCDC07E0D4E9012118F8010B67
:10D390009047206A401C2062381EA7F10107F3DC89
:10D3A0002046FFF7DBF8032011B041E601694A1C73
:10D3B00002610878704700B58FB0CDE901310021D6
:10D3C000059105497944CDE9031011466846FFF7F8
:10D3D00085F90FB000BD0000E5FFFFFF0A6802F805
:10D3E000010B0A607047D1E900239A4202D2531C14
:10D3F0000B601070704710B5436913B1AFF3008034
:10D4000001E0FFF7BCF8012010BD127800F1240103
:10D410000A7000224A700122EDE711684FF0FF32D6
:10D42000E9E70000074B70B50D467B44FFF7C3FFEB
:10D430000446284600F0DCF810B14FF0FF3070BD14
:10D44000204670BD919300002DE9FF5F15468A4686
:10D450000446DFF8AC80F8440027D8E900103E46C7
:10D46000CDE9001010E03AF816106A4602A800F064
:10D4700087FF411C07D02178890603D5E269391856
:10D4800091420DD80744761C2078800602D5E069C9
:10D49000B84205DDAE42E6DB3AF816000028E2D1DC
:10D4A000A069C01BA0612046FFF742F8D8E9001030
:10D4B000CDE90010002017E03AF818106A4602A8DB
:10D4C00000F05EFFB0F1FF3F81460BD000250DF16B
:10D4D000080B05E0D4E901211BF8050090476D1CFD
:10D4E0004D45F7D308F10100B0428046E4DB206AE5
:10D4F000384420622046FFF731F8BDE8FF9F000066
:10D50000D6D600002DE9F0418046D21D22F0070258
:10D510000025D2E90002F52915A614D0011E72F1EA
:10D52000000106DA0023D0EB030063EB020211A630
:10D5300008E0D8F800108B0701D50FA602E04907D4
:10D5400001D50EA601251146002408F1240704E0A8
:10D5500000F04CFC30323A55641C50EA0102F7D11D
:10D560002B46324621464046BDE8F041FFF7A2BCBB
:10D57000000000002D0000002B0000002000000033
:10D5800030B4002100F1240408E002F00705D208BD
:10D59000303542EA4372DB086554491C52EA030500
:10D5A000F3D10468002310A2250707D5A40600D4F0
:10D5B00021B1C46901230DA2641EC46130BCFFF710
:10D5C00079BC10B5044621461068FFF76AFC024694
:10D5D0002046BDE810400023D2E7D21D22F007010B
:10D5E000D1E90023CCE7000000000000300000007B
:10D5F000007B00F08000704770B50D460146144670
:10D60000D36850692A4608F061FD002807DA411CFA
:10D6100007D0E16820F0004041F48041E160281A21
:10D6200070BD204600F090FA4FF0FF3070BDC16829
:10D630000022026021F4805141F0400111F4C06FDA
:10D64000C16001D08260704702694168891AC2696D
:10D65000891A816070472DE9F0470446C06840F49C
:10D660008000E060010312D520F40020E060810614
:10D6700006D4E26A61688A4200D80A46511A2160DB
:10D6800040F40010E06094F82500BDE8F08720F435
:10D690000010E060800602D5204600F0ACFAE06899
:10D6A00042F281014FF0FF390140012903D02046A9
:10D6B00000F04AFAB6E02168002600290ADAC943D8
:10D6C00040F480502160C4E902606068411C6160E0
:10D6D0000078DAE744F2400108420CD020F4A04080
:10D6E00040F040002660E06021696068401AE1690E
:10D6F000401AA06096E0216991B9C00310D4E06996
:10D70000FEF70CFE2061B0B1E06840F4006010F458
:10D71000407FE06002D140F48070E060206960608A
:10D72000E068D4F814A0C1061AD5C0030ED520466F
:10D7300000F03EFA14E004F1240020610120E061D1
:10D74000E06820F4407040F48060E6E7216960689A
:10D75000401AA1690144504608F0F0FC0028A6DBFD
:10D76000E068C0032AD56168E06A884200D80846AC
:10D770002169451AE069471B1BD02046D4F8188060
:10D7800000F016FA08EB05015046C4F8188008F0BE
:10D79000D5FC00288BDBE06840F40030E06000023C
:10D7A00002D5A0692844A061E1692069C91B451818
:10D7B0000DE0204600F0FCF9E769F5E725696168AE
:10D7C000D4E90607491BE56208446560A061E0688A
:10D7D00020F0100010F4C06FE06002D0204600F08E
:10D7E000B3FDE06840F48050C4E90260000205D552
:10D7F0002069E06260606FF0010046E7224639462A
:10D800002846FFF7F9FE411C0CD02918E16258B1F7
:10D81000401E2060681C6060E06840F40030E060FA
:10D82000287832E7484630E765602046FFF7FFFE7C
:10D83000F8E72DE9F04705460C46C86820F42010AB
:10D8400040F48000C860800602D5084600F0D3F995
:10D85000E06841F282014FF0FF390140022903D014
:10D86000204600F071F9B5E000F42041B1F5004F19
:10D870000FD1C00306D56168E06A884200D8084627
:10D88000606006E02069E0626060606908F0D8FAD4
:10D89000A061A0680022EEB200280DDAE1688B05D5
:10D8A0000AD4C043A06041F490302260E060606818
:10D8B000411C61600670A5E0E0689046226040F47B
:10D8C0000050E060206968BB606908F0DFFA01275A
:10D8D00004F12405A0B1A08910F4407F08D0E069CC
:10D8E000FEF71CFD206118B1E06840F4006016E00E
:10D8F000E7612561E06820F4407040F480600EE04C
:10D90000E069FEF70BFD00282061F1D0E06840F4EB
:10D91000006010F4407FE06002D140F48070E0606D
:10D9200020696060E06825696FF0010AC1051FD5B4
:10D930006168E06A884200D80846411B04D022464C
:10D94000284600F00BF9F0BBE068010203D5E56260
:10D95000C4E9015854E0691CE1626160E16940F486
:10D960008030491EC4E9021030462E70BDE8F087B1
:10D97000010202D500F480320AE06068411C616057
:10D980000670E0680A2E40F48030E06006D0002285
:10D99000E16A6068814203D90B4602E00122F7E7A1
:10D9A0000346A7895B1B7F0503D4E7699F4200DD1F
:10D9B000E2B1814200D80146E5620F1AC4E901587C
:10D9C000002B09DD00E005E022461946284600F05C
:10D9D000C5F808B14846C9E747B1A069E562656086
:10D9E000C01BA061E06840F01000E060E068000249
:10D9F00008D56168A069E562491B08446560A061BB
:10DA00005046B3E73046B1E72DE9F04104461646EB
:10DA10000D464769007B80072ED0384608F036FA5D
:10DA200050BB3EB3012E02D0022E25D104E0204689
:10DA300000F068FC05441DE0384608F001FAE16892
:10DA4000002841F01001E16005DA204600F07CF882
:10DA50000120BDE8F081C9030BD56268E16A9142FB
:10DA600000D81146A26911442269891A814200DD59
:10DA700008460544002D01DA0220EAE7E16A606801
:10DA8000E268814206D29103E06203D522F40031BC
:10DA900041F01002A6690027AE4213DCE16A814220
:10DAA00001D90B4600E0034603EB060C2369ACEBFF
:10DAB000030CAC4506DD814201D98C4600E084466A
:10DAC0009C4505D1A760276042F02000A5620DE0CB
:10DAD000AD1BE669AE1B8142A66000D90846C01A9C
:10DAE000281A20605819606022F02000034908407D
:10DAF000E060002084F84870ABE70000BFCFD7FF9C
:10DB000070B5C468A50713D0650211D4B2F5807F43
:10DB100009D0B2F5007F06D0B2F5806F08D101239D
:10DB200000F1240106E05D1E6FF07F46B54201D38F
:10DB3000012070BD0161C361416024F47061114333
:10DB4000C160002070BD0000C16821F4001141F0E7
:10DB50008001C16000218160016070472DE9F047BC
:10DB6000814614460E464FF0FF383248D568576953
:10DB7000054209D03846A16908F0E0FA002811DB17
:10DB80002C48C0430540E5602B463246494638469E
:10DB900008F0FCFAA16920F00042B21A11440028F2
:10DBA000A16103D02046FFF7CFFF4046BDE8F087D4
:10DBB00070B504460569C06A6168884200D80846A5
:10DBC000E16821F42011E160C90312D5A84208D010
:10DBD0002246411B2846FFF7C1FF10B14FF0FF302E
:10DBE00070BD0020E562C4E90150E06820F4803097
:10DBF000E060002070BD10B50446C06820F0200031
:10DC0000E060A16AA06988420DD02046FFF7D0FFEE
:10DC1000E06820F4405040F01000E060A06AA0618D
:10DC20002069E062606044F24001E0688843E0609F
:10DC300010BD00001000020010B542485421FFF74B
:10DC40004AF841485421FFF746F840485421FFF76D
:10DC500042F83F493B483C4A3F4B08603D490A6017
:10DC60003A491960531C0365481C1065012008657A
:10DC70003B48344A39A17844FEF73CFE20B9384885
:10DC800078440A3800F0A8FB37482F4A35A1784479
:10DC9000FEF730FE20B9344878440A3800F09CFB87
:10DCA00032482A4A2FA17844FEF724FE20B92F4893
:10DCB00078440A3800F090FB40232248DC00002121
:10DCC0002246FFF71DFF20B125487844543800F064
:10DCD00083FB1D48224640230021FFF711FF20B19E
:10DCE00021487844543800F077FB18482246102326
:10DCF0000021FFF705FF002806D01C487844BDE846
:10DD00001040563800F068BB10BD104870B5006D6B
:10DD100020F001040B48FEF76DFE0B48FEF76AFE8B
:10DD20000A48FEF767FE09E0206D20F00105204655
:10DD3000FEF760FE2046FEF720FB2C46002CF3D1B8
:10DD400070BD0000DC4200203043002084430020EE
:10DD5000C8320020CC320020D032002072000000F7
:10DD6000FECC000077000000EDCC0000DDCC000010
:10DD700010B5002000F029FBAFF30080BDE8104093
:10DD8000012000F00FB810B500F034FBBDE81040E2
:10DD900000F016BB08B569468DF800000320ABBE45
:10DDA00008BD000001491820ABBEFEE726000200B6
:10DDB00000487047DC430020034640688C4600283A
:10DDC00018BF88423CBF03464068F8D3186818441F
:10DDD000884207D00CF1030020F00700001D411A13
:10DDE000521A0146081D0A60FEF7C7BA30B5B0F1F5
:10DDF0000A024FEA900E71F100034EEA817EB0EB09
:10DE00000E0061EB91014FEA101E4EEA017E10EB0D
:10DE10000E0041EB11114FEA102E4EEA016E10EB8D
:10DE20000E0041EB11214FEA104E4EEA014E10EB6D
:10DE30000E0041EB1141401841F100014FEAD000C2
:10DE400040EA41704FEAD10110EB80054FEA8104AE
:10DE500044EA907444EB01046D1944EB0404521B32
:10DE6000A3414FF0000348BF0A3200D530BD401C2B
:10DE700041F1000130BD00002DE9F04F04460D4690
:10DE8000D21D22F0070089B0D0E9009748463946F4
:10DE900007F017FC0246F80F01D02D2307E0206899
:10DEA000810701D52B2302E0202101EAC0038DF870
:10DEB00020300BB1012000E00020032A824601D06F
:10DEC000072A04DB2946204600F054F93FE1207878
:10DED000800601D40D2500E0E569C7F30A560D2D33
:10DEE00049DA00214FEA175B08464FF00000002F87
:10DEF00000F4400007DA00EB80004FF4400100EB33
:10DF0000D07001EA60008115012901DD4FF0FF3179
:10DF100000224FEA850CBCF1180F06D31346ACF172
:10DF200018004FF08052C24003E04FF4801323FAF0
:10DF30000CF30CF10C0CBCF1200F04D3ACF1200C51
:10DF400009FA0CF001E007FA0CF000294FF0004844
:10DF500001DD18B90FE00ED140450CD319EB0209D1
:10DF60005F4121B9404502D19F4329EA0209BBEB39
:10DF7000175F00D0761C2088000502D57B487844C6
:10DF800002E07A487844193808AA302302F80A30A7
:10DF9000037C0AF10101002E0AF1020A53546A4679
:10DFA00002DC4FF0300101E04FF031014FF0010889
:10DFB0008DF8001002D0A6F2FF3603E059EA4701BF
:10DFC00000D06B4E002D02DC2178090704D54FF0FC
:10DFD00002082E218DF80110C44600210BE0C7F382
:10DFE00003433F01C35C491C6D1E02F8083005293C
:10DFF00008F1010801DA002DF1DC00210CE000EB52
:10E000001973491C1B786D1E082902F808304FEA65
:10E01000091908F1010801DA002DF0DC21688B06EE
:10E0200002D516E0A8F10108E04505DD02EB080382
:10E0300013F8013C302BF5D0B8F1000F09DD02EBED
:10E04000080313F8013C2E2B03D1090701D4A8F1D2
:10E050000108002D05DD3E2102F808106D1E08F1B3
:10E060000108407C002E02F8080008F1010804DADB
:10E070002D20764202F8080002E02B2002F808006A
:10E080000A214FF47A70864208F101080BDB96FBF7
:10E09000F0F3303302F8083096FBF0F308F1010892
:10E0A00000FB136601E0642E0CDB642096FBF0F3AA
:10E0B000303302F8083096FBF0F308F1010800FB5A
:10E0C000136601E00A2E06DB96FBF1F0303002F811
:10E0D000080008F1010896FBF1F001FB10603030F8
:10E0E00002F80800A16908F1010808EB050202EB3B
:10E0F0000A00081AA0612078C00602D42046FEF764
:10E1000017FA216A08AE01EB0A00206204E0D4E9A4
:10E11000012116F8010B9047BAF1010AF7D22078D5
:10E12000C00602D52046FEF703FA6E4609E016F84F
:10E13000010B3E280FD0D4E901219047206A401CF2
:10E140002062B8F10108F2D22046FEF707FA09B0C2
:10E150000320BDE8F08F206A2844206203E0D4E960
:10E160000121302090476D1EEBD3F8E7C9CB0000AA
:10E1700002FCFFFF2DE9F0411F460446032601681B
:10E18000072A01F4006004DB08B116A505E016A516
:10E1900003E008B115A500E015A521F010002060EE
:10E1A000A069C01EA0610FB1401EA0612046FEF70D
:10E1B000BFF94FB1D4E9012138469047206A401C8D
:10E1C0002062C01C206206E0206AFAE7D4E901213F
:10E1D00015F8010B9047761EF8D22046FEF7BEF9DF
:10E1E000BDE8F0814E414E006E616E00494E460022
:10E1F000696E660010B5436913B1AFF3008001E0AA
:10E20000FFF722F9012010BD128800F12401828459
:10E210000022C2840122EDE711684FF0FF32E9E7E6
:10E220002DE9F047814616468AB0354878440DC836
:10E230008DE80D0032487844801C03AC0DC884E89A
:10E240000D0041F69B300844372190FBF1F290FB22
:10E25000F1F5A5F1800501FB12041B3C02D56442D7
:10E26000012000E00020DFF898A080460027FA4453
:10E27000AAF1BE0A0EE0E0070AD03246684607EB74
:10E28000470101230AEB810100F00FFC8DE8070034
:10E2900064107F1C002CEED1194F7F44AE3F19E073
:10E2A000E80715D007EB04100DF1180A90E80E00EE
:10E2B0008AE80E00C068F04201D1981908903246F1
:10E2C000012306A903A800F0F0FB03AB83E80700D5
:10E2D0006D10641C002DE3D14FF0010332466946F6
:10E2E000B8F1000F03A802D000F0CAFB01E000F073
:10E2F000DCFBC9E90001C9F808200AB0BDE8F087D5
:10E30000ACC9000010B50146C268900703D0900662
:10E3100007D5886A0AE0FDF7FDFF01210160881E2C
:10E3200010BD8B69486818440B69C01A91F84830D1
:10E330001BB191F84910401A10BD1103FCD50028FB
:10E34000FADD401E10BD000070B5054640F2022601
:10E350000A4C0FE094F85000C00708D0AC4206D039
:10E36000E06836EA000002D12046FEF77BFA206D15
:10E3700020F00104002CEDD170BD0000DC42002033
:10E3800070B516460C46054600F082F8036893F80F
:10E390000101012806D0FF2C0FD8185D68B10120BB
:10E3A0002C7070BDD3F807013246214603F20713E3
:10E3B00003442846BDE8704018474FF0FF3070BD59
:10E3C000002801D0FFF7EEBC704710B500F082F8CE
:10E3D000BDE81040FFF7F4BF10B500F093F8BDE8BA
:10E3E0001040FFF7EDBF10B500F0A6F8BDE81040F3
:10E3F000FFF7E6BF10B5002102A000F051F80120A0
:10E4000010BD00005349475056464E3A2050757291
:10E4100065207669727475616C20666E2063616C2C
:10E420006C65640010B50449FEF74EFABDE8104073
:10E430000148FEF732BA000084430020124B6946BF
:10E4400000F580528A421A6001D81146704719605F
:10E45000704730B50C4D6B46A3F580532C682244B1
:10E460009A420FD89B1A02F5805003EBD37302EB4C
:10E470006303984200D91846C01D20F007020C60C3
:10E48000101B2A6030BD0000D4320020704700000D
:10E4900010B5FFF78DFC001D10BD00BFA1B7000037
:10E4A00070B505460C460A2000E06D1CFFF772FCB3
:10E4B00035B128780028F8D102E0641CFFF76AFC27
:10E4C00014B120780028F8D1BDE870400A20FFF789
:10E4D00061BC000010B5002102A0FFF7E1FF0120A0
:10E4E00010BD0000534947414252543A2041626EE8
:10E4F0006F726D616C207465726D696E6174696FA5
:10E500006E00000010B5014602A0FFF7C9FF012010
:10E5100010BD000053494752545245443A205265B9
:10E520006469726563743A2063616E2774206F704A
:10E53000656E3A200000000010B5012805D00021CA
:10E5400003A0FFF7ADFF012010BD09A1F8E700000F
:10E5500053494752544D454D3A204F7574206F66CC
:10E560002068656170206D656D6F72790000000034
:10E570003A2048656170206D656D6F727920636F18
:10E5800072727570746564005FEA400C08BF91F0A8
:10E59000000F4FEA8C234FEAC12243EA51514FEA60
:10E5A0001C5018BF00F5F0404FEA300018BF41F092
:10E5B00000415FEA6C5C00F02980BCF1FF3F08BFBE
:10E5C00040F080407047130C06BF12044FF0100C4F
:10E5D0004FF0000C130E04BF12020CF1080C130FC5
:10E5E00004BF12010CF1040C930F04BF92000CF154
:10E5F000020CD30F04BF52000CF1010C11464FF076
:10E600000002A0F11F00A0EB0C00704711F0004FBA
:10E6100008BF704731F000413FF4D5AF0B0C06BF87
:10E6200009044FF0100C4FF0000C0B0E04BF090250
:10E630000CF1080C0B0F04BF09010CF1040C8B0F3B
:10E6400004BF89000CF1020CCB0F04BF49000CF190
:10E65000010CCCF12003A0EB0C0022FA03F302FA28
:10E660000CF241EA030100F10100704720F07F4CF9
:10E6700080EA030023F07F47ACEB070303F57C53EC
:10E6800000F0004003F1FF032DE980494FEA154BEC
:10E6900009B44FEA144325EA0B4E24EA03480FF26B
:10E6A000042606EB132749083E785FEA320203FB93
:10E6B0000667C7F5000707FB06F64FEA54374FEA2F
:10E6C000D64606F1020607FB066CCCF1005C4FEA69
:10E6D0001C472CEA074C07FB06F40CFB06F504EB81
:10E6E00015464FEA961634BF00204FF000404FEA1F
:10E6F000D13706FB07FC4FEA1C4C0CFB0BF7D21B77
:10E7000003FB0CF761EB07010CFB0EF7B0EB0740C6
:10E7100072EB17420CFB08F734BFA2EB0742B2EBD7
:10E72000074261EB17414FEA0C444FEA910706FBA1
:10E7300007FC4FEA1C4C0CFB0BF7B0EBC74072EB2D
:10E74000573203FB0CF734BFA2EBC742B2EBC74210
:10E7500061EB57310CFB0EF7B0EBC70072EB577251
:10E760000CFB08F734BFA2EBC702B2EBC70261EBA8
:10E770005771039F4FEA816141EA921104EBCC0487
:10E780004FEAD1374FEA826206FB07FC42EA901259
:10E790004FEA80604FEA1C4C0CFB0BF7D21B03FBCB
:10E7A0000CF761EB07010CFB0EF7B0EB074072EBC7
:10E7B00017420CFB08F734BFA2EB0742B2EB07424B
:10E7C00061EB17414FEA8C554FEA910704EB9C240B
:10E7D00006FB07FC4FEA1C4C0CFB0BF7B0EBC740E9
:10E7E00072EB573203FB0CF734BFA2EBC742B2EB1C
:10E7F000C74261EB57310CFB0EF7B0EBC70072EB71
:10E8000057720CFB08F734BFA2EBC702B2EBC7028A
:10E8100061EB577115EB4C254FEA816141EA92118A
:10E820004FEA82624FEAD13742EA901206FB07FCB8
:10E8300044F100044FEA80604FEA1C4C0CFB0BF7DC
:10E84000D21B03FB0CF761EB07010CFB0EF7B0EBDF
:10E85000074072EB17420CFB08F734BFA2EB0742EC
:10E86000B2EB074261EB174115EB1C154FEA813102
:10E8700041EA92414FEA823242EA90424FEA8030C6
:10E880004FEA0C7644F1000448EA03434EEA0B4891
:10E890004FF0000EB2EB080C71EB030724BF624689
:10E8A00039464EEB0E0E4FF0000B00185241494115
:10E8B0004BEB0B0BB2EB080C71EB03077BF1000B7E
:10E8C00024BF624639464EEB0E0E4FF0000B001887
:10E8D000524149414BEB0B0BB2EB080C71EB0307B8
:10E8E0007BF1000B24BF624639464EEB0E0E51EA17
:10E8F000020718BF46F0010616EB0E7655F100022E
:10E9000054F1000103D5BDE88901BDE80088BDE8E8
:10E910008901BDE80048B619524141EB0101A3F15C
:10E920000103704780807F7E7D7C7B7A7978777663
:10E9300076757473727171706F6E6E6D6C6C6B6ADC
:10E940006A6968686766666564646363626161607A
:10E95000605F5F5E5E5D5D5C5C5B5B5A5A595958F7
:10E960005857575656555555545453535252525161
:10E97000515050504F4F4F4E4E4D4D4D4C4C4C4BB7
:10E980004B4B4A4A4A4949494848484747474746FE
:10E99000464645454544444444434343434242423A
:10E9A00042414141002B9C4630D477002BD01CB50E
:10E9B0004FEA370703B44FF010004FF01001BAF1DF
:10E9C000000F06D0BCF1000FDCBF40F0080040F0A3
:10E9D00008014FF000000FBCBDE810400BF1010B27
:10E9E000BBF1010F08BF5FEA170722BF12F1010256
:10E9F00011F101014FF0004143F1000300F000402C
:10EA000043EA00007047F9D35708D0E746EA0646C4
:10EA100013F1400F4FEA16461FDD13F1200FDFBF41
:10EA200016430A46002120335B42BED0C3F12007C3
:10EA300046EA064602FA07F74FEA164646EA07068E
:10EA4000C3F1200722FA03F201FA07F721FA03F1D2
:10EA50004FF0000342EA0702A7E746EA020646EA49
:10EA600006464FEA164646EA0106BCBF46EA064697
:10EA7000360C4FF000034FF000024FF0000194E716
:10EA80002DE9804C9A46934670B491E8380007C847
:10EA900031EA400C48BF34EA430C03D5FFF7E6FDEA
:10EAA000FFF780FFF0BCBDE8008C2DE9804C9A4652
:10EAB000934670B491E8380007C810F0804F08BF43
:10EAC00013F0804F03D100F005F8FFF76BFFF0BCA7
:10EAD000BDE8008C20F07F4780EA030023F07F4CE4
:10EAE00007EB0C03A3F57C5300F00040A3F1FE03F9
:10EAF00092F0000F00F0B38095F0000F00F07780E7
:10EB00002DE901494FEA11404FEA144621EA004835
:10EB100000FB06FC24EA064708FB06F607FB08F89C
:10EB200000FB07F718EB06484CEB164C4FEA124B6C
:10EB300018EB07484FEA15464CEB174022EA0B4EFC
:10EB40000BFB06FC25EA06470EFB06F607FB0EFE4E
:10EB50000BFB07F71EEB064E4CEB164C4FF0000676
:10EB60001EEB074E4CEB174B18EB0B0840F1000067
:10EB700018EB0E0B58EB000840F100008F1A4FF015
:10EB800000013CBFC943661B14BFB5EB040C002158
:10EB90003CBFC943F61B4FEA17444EEA8E0E27EAE4
:10EBA00004454FEA1C4704FB07622CEA074C05FBAF
:10EBB00007F70CFB05F604FB0CFC16EB074642EBD3
:10EBC000174216EB0C4642EB1C421BEB060658EBB9
:10EBD0000202414146EA9E0601D5BDE80189B61907
:10EBE000524141EB0101A3F10103BDE801894FEA64
:10EBF00014454FEA114724EA054621EA074C05FB74
:10EC000007F406FB07F70CFB06F105FB0CFC11EB08
:10EC1000074144EB17444FEA124711EB0C4144EB18
:10EC20001C4422EA074C05FB07F206FB07F70CFB26
:10EC300006F605FB0CFC16EB074642EB174216EBFB
:10EC40000C4642EB1C456A1854F1000148BF70475E
:10EC5000B619524141EB0101A3F10103704795F050
:10EC6000000F37D04FEA11424FEA144721EA02461B
:10EC700024EA074C02FB07F106FB07F70CFB06F43E
:10EC800002FB0CFC14EB074441EB17414FEA15471C
:10EC900014EB0C4441EB1C4125EA074C02FB07F541
:10ECA00006FB07F70CFB06F602FB0CFC16EB07460F
:10ECB00045EB174516EB0C4645EB1C42121951F17A
:10ECC000000148BF7047B619524141EB0101A3F161
:10ECD000010370474FEA14454FEA114724EA0546FD
:10ECE00021EA074C05FB07F106FB07F70CFB06F2D0
:10ECF0004FF0000605FB0CFC12EB074241EB1741FD
:10ED000012EB0C4251EB1C4148BF7047921841EB8B
:10ED10000101A3F10103704710B508F0D1FFBDE870
:10ED2000104008F033BD0021016041608160C16086
:10ED3000704700002DE9F84F00270121594C3E464D
:10ED40004FF480703A46BC464FEA010A00F1804316
:10ED500003F5C0431D68012D08D1D4F804530D42BA
:10ED600004D0C3F800C01B680F430093001D490086
:10ED7000521C80B2082AE9D34B48DFF83091016871
:10ED8000012907D1C0F800C000680090D9F80060E0
:10ED900047F00047464D17F0FF0F1CBF4FF001082A
:10EDA000002417D018EA070F0FD0A00000F180410F
:10EDB00001F5C041D1F81005D1F81015C0F30420B9
:10EDC00055F82420C1F301419047641C4FEA4808DC
:10EDD000082CE7D317F0004F1ABF00274FF0FF3879
:10EDE000BDE8F88F4FF000094C462A1992F86010E0
:10EDF0004AB221F0C000B2F1FF3F1CBF0AFA00FC8A
:10EE00001CEA080F25D005EB00024FEA911192F998
:10EE1000402055F8223013B1032902D003E0032922
:10EE200017D147EA0C07820002F1A042D2F800B7DE
:10EE30001CEA060FCBF3014B03D0BBF1020F03D04A
:10EE400007E0BBF1030F04D1032913D0002B18BF37
:10EE50009847641C082CC8D3B9F1000F08BFBDE85F
:10EE6000F88F12480068B0421CBF0646B846B9D1B8
:10EE7000BDE8F88FBBF1020F14BF4FF0020C4FF04A
:10EE8000030CD2F800B72BF4403BC2F800B7D2F81D
:10EE900000B74BEA0C4CC2F800C709F1010202F0BE
:10EEA000FF09D3E7006000407C610040100500507E
:10EEB00014370020024A02EB800001647047000012
:10EEC000F82E00200149024808F0DCBB8037002002
:10EED00000C001400149024808F0D4BB8837002037
:10EEE000001002400149024808F0CCBB90370020D6
:10EEF0000020024038B50E4CD4F8040148B100207F
:10EF0000C4F80401D4F8040100900A484168491C7F
:10EF10004160D4F84001002818BF0AF0E5FDD4F89C
:10EF20004801002808BF38BDBDE8384008F01EBCC5
:10EF3000001001403C3000202DE9F0432B4C83B001
:10EF4000D4F8040100262A4D0127B8B1C4F80461A1
:10EF50008DF800606868019026480068ADF80800E8
:10EF6000E868002808BF85F8276004D06860A88A90
:10EF70002881EE602760296868468847D4F8140124
:10EF800000281FBFC4F8146185F8276003B0BDE8EE
:10EF9000F0832C69002C19BF4FF000484FF48C7996
:10EFA00003B0BDE8F08300BFB4FA84F028FA00F1A2
:10EFB0008C4309EB800000F1804101F5E0410A68D3
:10EFC00072B10E60A0F58C70C1088DF8041027EAAC
:10EFD00090008DF800708DF8050029686846884714
:10EFE000002CE1D103B0BDE8F083000000700040C8
:10EFF0009837002034760040014800680047000040
:10F000001C30002001480068004700002430002028
:10F0100070B492480125011D03780A1D08074FF0BE
:10F02000000C062B04BF0C7814F00F0F04D11478D9
:10F0300004F0F004302C0CD0062B04BF0C7814F034
:10F040000F0F0AD0062B04BF0C7814F00F0F19D144
:10F0500013E0844E824C746707E0147804F0F004E7
:10F06000302C1CBF402C502CECD14FF08054D4F8E5
:10F0700044427D4EC4F342343460147804F0F0040A
:10F08000302C0CD0062B04BF0C7814F00F0F0CD0D2
:10F09000062B04BF0C7814F00F0F1AD114E0734C38
:10F0A000266826F08076266007E0147804F0F004E5
:10F0B000302C1CBF402C502CEAD1C0F80CC1C0F839
:10F0C00010C16B4CC4F800C0147804F0F004302C6C
:10F0D00006D0062B04BF0C7814F00F0F0AD104E001
:10F0E000644B4FF0030119600BE0147804F0F00456
:10F0F000302C06D0062B04BF097811F00F0F65D114
:10F100000DE05D4B4FF0050119605C490D605C49F5
:10F11000C1F800C003F104034FF03F0119601178FA
:10F1200001F0F001502951D156490968564A116041
:10F130005649096802F1040211605549096802F153
:10F14000040211605349096802F104021160524936
:10F15000096802F1040211605049096802F10402D1
:10F1600011604F4909684F4A11604F49096802F11F
:10F17000040211604D49096802F1040211604C4912
:10F18000096802F1040211604A49096802F10402A7
:10F1900011604949096802F1040211604749096890
:10F1A000474A11604749096802F104021160464963
:10F1B000096802F1040211604449096802F104027D
:10F1C00011604349096802F10402116041490A686B
:10F1D00042F470020A60BFF34F8FBFF36F8F4FF09E
:10F1E0001022D2F8001211F0004F04BFD2F804121E
:10F1F00011F0004F24D0384B1D60384801680029B9
:10F20000FCD04FF01504C2F8004201680029FCD080
:10F21000C2F8044201680029FCD0C3F800C00168AC
:10F220000029FCD0BFF34F8F2D4801682D4A01F40F
:10F23000E06141EA02010160BFF34F8F00BFFDE7CB
:10F240002A4A294911602A490D60C0F804C1856025
:10F25000D0F804110029FBD070BC7047E00F00F01B
:10F260000DF0ADBA00C007403C050040FCED00E0E9
:10F2700038050040A0050040105600408856004068
:10F28000185600400404001020C500400804001077
:10F290000C040010100400101404001018040010D6
:10F2A0001C04001040C5004020040010240400107D
:10F2B000280400102C040010300400103404001046
:10F2C00060C50040380400103C04001040040010E9
:10F2D0004404001088ED00E004E5014000E4014032
:10F2E0000CED00E00400FA050090D0033830002057
:10F2F0001805004070B5534DD5F80403524C10F07A
:10F30000040F4FF000061CBFD5F8080100283CD0C0
:10F3100094F82400002833D0C5F80861D5F8180502
:10F32000226BA16AC0B2885494F838300021FF2BB8
:10F330000BD0834209D1206D40F400502065B4F811
:10F340004C0010F4005F18BF0121501C2063E26ADA
:10F35000904204D3206D40F48070206500E0A1B19C
:10F3600094F8540010F0020F04BF0420C5F80803FD
:10F3700084F82460606B00281CBF6663804704E04B
:10F38000A26812B1002160689047D5F8040310F01C
:10F39000800F1CBFD5F81C01002828D094F8390034
:10F3A00000B3D4E91010884208D2C5F81C61E16BA3
:10F3B000264A095C1160401C606418E094F854000F
:10F3C00010F0010F04BF8020C5F8080384F83960ED
:10F3D000206D40F004002065A06C00281CBFA664CE
:10F3E000804704E0A26812B1012160689047D5F817
:10F3F0002401002808BF70BDC5F82461D5F8800439
:10F40000C5F88004616BC0B2002908BF70BD226DD1
:10F4100010F0020F42F0020222651CBF42F40062AB
:10F42000226510F0040F03D0226D42F48062226541
:10F4300010F0010F03D0206D40F400702065BDE88E
:10F440007040084700200040283800201C2500405C
:10F4500010B5044624B105A10648FDF753F803E0B2
:10F4600005A10448FDF74EF8024810BD6D616E75A8
:10F4700000000000103100206175746F0000000072
:10F4800010B504462348002101600171102C24D0DE
:10F4900008DC012C0DD0022C10D0042C13D0082C29
:10F4A0002FD115E0202C1DD0402C20D0802C28D12D
:10F4B00022E019A11748FDF725F827E017A1154804
:10F4C000FDF720F822E016A11248FDF71BF81DE019
:10F4D00014A11048FDF716F818E013A10D48FDF728
:10F4E00011F813E011A10B48FDF70CF80EE010A184
:10F4F0000848FDF707F809E00EA10648FDF702F8F5
:10F5000004E00EA10348FCF7FDFF00BF00BF014867
:10F5100010BD0000103100204E6F000050697200D5
:10F520004D77000044617900536E7800487962009D
:10F53000566F6C005465737400000000734572725E
:10F540000000000070B504460D4600BF94F90000AD
:10F55000401C20B920220CA11BA008F0C7FA00BF54
:10F560003DB194F90000012181401D4A116000BFA6
:10F5700008E094F9000001218140194A121D116030
:10F5800000BF00BF70BD00006D6265642F54415222
:10F590004745545F4E524635325F444B2F544152DB
:10F5A0004745545F4E4F524449432F5441524745BB
:10F5B000545F4E5246352F6770696F5F6F626A65A0
:10F5C00063742E68000000006F626A2D3E70696EE1
:10F5D00020213D202850696E4E616D65294E430003
:10F5E0000805005070B50146002000231F240A467C
:10F5F00005E012F8016B3518E8B25D1CEBB2E51AB4
:10F60000F7D170BD70B50025354801F0BBFF354915
:10F6100008600846006834490968441A304801F017
:10F62000B1FF3149086043F2E62084420ED343F231
:10F63000066084420AD801202C49C87040F2EE20AE
:10F640004860202088600020C86048E02748C078D3
:10F6500000283ED0254881688068401E234A90607B
:10F66000002936D0B4F5E16F0BD340F62820844250
:10F6700007D81046C06840F001001146C860012557
:10F680000DE0B4F52F7F0AD340F2DC50844206D857
:10F690001648C06820F001001449C86001258DB1EA
:10F6A0001248806840B90120104948700020C87095
:10F6B000C8708860486012E00C48C06840000B4980
:10F6C000C8600CE000200949C870887088604860F4
:10F6D00005E000200549C87088708860486070BDEA
:10F6E000003A002098300020943000207030002034
:10F6F00070B50546072D23D2DFE805F02204090E78
:10F7000013181D00012412A0FCF7F0FE1DE00224D6
:10F7100011A0FCF7EBFE18E0042411A0FCF7E6FEB4
:10F7200013E0102410A0FCF7E1FE0EE0202410A04E
:10F73000FCF7DCFE09E040240FA0FCF7D7FE04E054
:10F7400029460FA0FCF7D2FE00BF00BF204670BDC7
:10F750006552782C000000006554782C00000000F1
:10F76000655352782C000000655270742C00000024
:10F770006547572C00000000654D73742C00000095
:10F780004572726F72205278547820547970653ABD
:10F7900025640A0D0000000010B50420024908701D
:10F7A00002A0FCF7A3FE10BD513100200A0D2D2D43
:10F7B0002D2D2D2D2D2D2D2D53657474696E6720E3
:10F7C00054696D656F75742C20706C65617365206C
:10F7D00074727920616761696E0A0D00F0B5DDE928
:10F7E000054541EA420646EA830646EA042646EA19
:10F7F0000547024E46F82070F0BD0000000700509B
:10F8000070B50446A57C25B903A0FCF76FFE012066
:10F8100070BD0020FCE700002A2A2A2A2A2A2A2A68
:10F820002A2A4572726F722070696420616E6420AA
:10F83000636F6D6D616E640D0A00000070B5044663
:10F840000D462146084805F0B3FC0646314607A0A0
:10F85000FCF74CFE2946044805F0AAFC0646314652
:10F8600009A0FCF743FE70BD283100206469737065
:10F870004572726F72527854782021212120546889
:10F8800069732025733A200066726F6D2077686572
:10F8900072652025732C204E6F20416374696F6E52
:10F8A0000A0D000070B50546012D06D0022D09D0C5
:10F8B000032D0CD0042D14D10EE001240DA0FCF773
:10F8C00015FE13E002240EA0FCF710FE0EE0082443
:10F8D0000DA0FCF70BFE09E040240EA0FCF706FE8D
:10F8E00004E029460EA0FCF701FE00BF00BF204641
:10F8F00070BD0000654E6F53656E736F722C000013
:10F90000655069722C000000654461794C69676834
:10F91000742C000065566F6C756D652C000000003E
:10F920004572726F722053656E736F7220547970D6
:10F93000653A25640A0D000010B506A0FCF7D6FD57
:10F940000C480068401C0B49086001200A490870F7
:10F9500010BD00000D0A2D2D2D2D2D2D2D2D2D2D01
:10F960002D2D2074696D656F7574547261666669BA
:10F97000630A0D00143200201832002000200149D3
:10F9800008707047E831002002210C4A116000BF66
:10F990000B4909680029FBD00849091D086000BF10
:10F9A000074909680029FBD00021044A116000BF03
:10F9B000034909680029FBD07047000004E50140B5
:10F9C00000E4014000BF0D4A1278002AFBD1012259
:10F9D0000B4B1A6000BF0B4A1268002AFBD0016073
:10F9E00000BF084A1268002AFBD00022044B1A60AC
:10F9F00000BF044A1268002AFBD070475130002033
:10FA000004E5014000E4014001218140014A116008
:10FA10007047000008050050014603480068C840D0
:10FA200000F0010070470000100500507CB505464D
:10FA30000C460020009023460246014601902846CD
:10FA4000FFF7CCFE7CBD000001218140014A11601E
:10FA5000704700000C05005000200D49086001208F
:10FA60008107086000BF0A4800680028FBD0022018
:10FA70000849086000200649091D08600120810727
:10FA8000886000BF0248001D00680028FAD0704757
:10FA900000010040180500407CB504460D464DB9F4
:10FAA0000020009003460246014601902046FFF7E1
:10FAB00095FE03E00120A040014908607CBD0000E4
:10FAC0001805005070B50546082D2DD2DFE805F069
:10FAD00004090E13181D2227002417A0FCF706FDA9
:10FAE00027E0672416A0FCF701FD22E0682417A098
:10FAF000FCF7FCFC1DE0692417A0FCF7F7FC18E0FC
:10FB00006A2418A0FCF7F2FC13E06C2418A0FCF7A0
:10FB1000EDFC0EE06D241BA0FCF7E8FC09E06E2470
:10FB20001DA0FCF7E3FC04E029461FA0FCF7DEFC67
:10FB300000BF00BF204670BD4E6F5375622C0000A1
:10FB4000656473436F6E74726F6C2C006564734EE2
:10FB500065775365742C000065647350696E672C7B
:10FB60000000000065647350686F746F2C00000023
:10FB7000656473436D645F3438354E6577536574DF
:10FB80002C000000656473436D645F416C746572A2
:10FB90006E61746976652C00656473436D645F53B0
:10FBA00074617475732C00004572726F7220537506
:10FBB000623A25640A0D000004480068401C0349AD
:10FBC000086001200249087070470000D82F00200B
:10FBD000D42F002010B58CB004463C20B4FBF0F1CB
:10FBE00000FB114001903C20B4FBF0F03C21B0FB45
:10FBF000F1F201FB120002904FF46160B4FBF0F0EF
:10FC00001821B0FBF1F201FB120003900648B4FB8F
:10FC1000F0F004900198009004A0DDE9023204990C
:10FC2000FCF764FC0CB010BD805101003A3A542D31
:10FC30003E2025643A25643A25643A25640A0D007D
:10FC40000120014908707047D52F002010B503A08E
:10FC5000FCF74CFC00200549087010BD0D0A7469C2
:10FC60006D656F757441636B0A0D000010320020E2
:10FC700000BF00BF00BF00BF00BFBFF34F8F00BF7A
:10FC800000BF00BF0948006800F4E060084908436D
:10FC9000001D0649086000BF00BF00BFBFF34F8FC3
:10FCA00000BF00BF00BF00BF00BFFDE70CED00E0DC
:10FCB0000000FA0570B52DED028B82B005460C46AA
:10FCC00000261F48214602681E4805F019FB20B394
:10FCD00001A802F065FB2078194A1268117801EB3F
:10FCE000D1725210A1EB420200EBD0735B10A0EB7B
:10FCF00043039A4210D1207A00EE100AB8EE400A6F
:10FD0000DFED110A80EE201AB0EE418AB0EE480A0B
:10FD10000E48006803F0ACFE00BF094801680948BE
:10FD200005F082FB30B12146284600F0B5F86D2180
:10FD3000E1730126304602B0BDEC028B70BD0000BD
:10FD4000AC310020A03100200000C842BC310020AE
:10FD5000F8B506460C46684604F098FB00270F48A5
:10FD6000214602680E4805F0CBFAA0B12146304684
:10FD700000F092F86E21E173A51D684604F056FA72
:10FD80002880684604F094FA2871684604F06AFAFC
:10FD9000E880012700BF3846F8BD0000AC310020E4
:10FDA000A03100202DE9FC4106460C4601A804F0D4
:10FDB00097FF0027E57B684604F068FBA5F1650026
:10FDC0000A284BD2DFE800F0053012184A4A4A1ED2
:10FDD0002A3E2046FFF714FD10B10020BDE8FC814B
:10FDE0002146304600F092F807463CE02146304676
:10FDF00000F0B8F8074636E02146304600F062F8D9
:10FE0000074630E02046FFF7FBFC08B10020E5E79D
:10FE10002146304600F0F6F8074624E021463046F9
:10FE2000FFF748FF07461EE02046FFF7E9FC08B150
:10FE30000020D3E70DA0FCF759FB684604F04EFA0A
:10FE4000002710E02046FFF7DBFC08B10020C5E7E3
:10FE500021463046FFF77CFF074604E0294609A00B
:10FE6000FCF744FB00BF00BF3846B7E72D2D2D2D12
:10FE70002D2D2D2D204D6F6E69746F72696E670D7B
:10FE80000A000000537820436865636B20436D646B
:10FE90002025640A0D00000070B506460C4620229D
:10FEA000074801682046FCF775FE04F11205402062
:10FEB00068700020287068806520A07370BD000005
:10FEC000AC31002070B505460C4600260C48214692
:10FED00002680C4805F014FA10B100200A490870B5
:10FEE00007480168074805F09FFA30B121462846C7
:10FEF000FFF7D2FF6821E1730126304670BD000094
:10FF0000AC310020A0310020803B0020FEB5064629
:10FF10000C4602A804F0BAFA0027104821460268ED
:10FF20000F4805F0EDF9B0B121463046FFF7B4FFB8
:10FF30006521E17354F8060F0090606801906D46EA
:10FF400002A804F0BFF968602868206068686060F3
:10FF5000A41F012700BF3846FEBD0000AC310020C1
:10FF6000A031002070B52DED028B05460C46002611
:10FF7000204821460268204805F0C2F940B31D48D8
:10FF800001681D4804F05AFF88B1207A00EE100A7B
:10FF9000B8EE400ADFED190A80EE201AB0EE418A71
:10FFA000B0EE480A1648006803F042FD10E0207ADF
:10FFB00000EE100AB8EE400ADFED100A80EE201ABB
:10FFC000B0EE418AB0EE480A0D48006803F050FDDB
:10FFD00008480168084805F027FA30B1214628464C
:10FFE000FFF75AFF6721E17301263046BDEC028B13
:10FFF00070BD0000AC310020A03100200000C842DC
:020000040002F8
:10000000BC310020F8B506460C46002722482146A0
:100010000268224805F074F978B3A51D684602F01D
:10002000BFF928791C49096808706879012806D049
:10003000022805D0042804D0202808D102E000BFFF
:1000400000BF00BF687914490968487000E000BF2C
:1000500000BFE888104909688880A0790E490968BE
:100060008871E1790C480068C171684601F0CAFFE7
:100070009FED0B0A09F0A2FD00BF07480168074881
:1000800005F0D2F930B121463046FFF705FF6C216B
:10009000E17301273846F8BDAC310020A0310020C3
:1000A000CDCCCC3D0FB410B504460E490398086082
:1000B0000846006802F038F90B49086008460068F5
:1000C0000A4908600A49049808600A4905980860C6
:1000D000094906980860094907980860204610BC3D
:1000E0005DF814FBA4310020A8310020AC310020C1
:1000F000B0310020B4310020B8310020BC310020E4
:1001000070B505460C4621460648006802F03EFBE5
:100110009FED050A09F052FD214604A0FCF7E6F91F
:1001200070BD0000D8310020CDCCCC3D53783132A9
:100130003736206368616E676547726F757020257A
:10014000640D0A007CB506460C4600942546102234
:1001500029460D4805F020F9009908821E222946FB
:10016000094805F019F90099C88320208DF804008A
:100170000648DDE90012006802F018FB642104481B
:10018000006803F0F3FE7CBDC0310020D8310020B0
:10019000E03100200FB470B504460A9D0F49059860
:1001A00008600846006802F0BFF80D49086008467C
:1001B00000680C4908600C49069808600B490798CC
:1001C00008600B49089808600A49099808600A48BD
:1001D0000560204670BC5DF814FB0000C4310020AF
:1001E000C8310020CC310020D0310020D431002093
:1001F000DC310020E0310020E431002070470000B5
:10020000F0B52DED048B81B005460C46684602F032
:10021000C7F8684602F088F80646012C2CD12D4814
:1002200001880068401C2B4A1060C1F3090010BB14
:10023000294802F0CDFA07460AF056F841EC190BAE
:100240009FED260B53EC102B09F082FE41EC180BAE
:1002500009F098FD23490862084690ED080A10EE5F
:10026000101A08460AF0BAFA41EC180B53EC182B96
:100270001DA0FCF73BF90AE01F4801F043FC1948B8
:1002800080ED080A1D480068401C1C49086015489C
:10029000D0ED080AB0EE600A284600F031F81148A7
:1002A00090ED020AD0ED080AB4EEE00AF1EE10FA81
:1002B00003DD00200B49487002E001200949487025
:1002C0000120084908700846007801B0BDEC048B95
:1002D000F0BD000064320020503200200000000019
:1002E0000000F040CC400020445F50686F746F3ACB
:1002F00025660D0A000000005432002068320020FC
:10030000F0EE400A1B490988B1F57A7F0CDA1A49E8
:1003100091ED000A30EE200A81ED000A15490988A6
:10032000491C144A118013E0144991ED070A12493F
:1003300091ED001A31EE400A81ED000A91ED000ABC
:1003400030EE200A81ED000A4FF47A71094A1180DB
:10035000094991ED001A0749098800EE101AB8EE14
:10036000400AC1EE001A0549C1ED071A91ED070ACE
:10037000704700005C32002060320020CC4000203A
:1003800000210E4A1170F6EE000A1146C1ED070A6F
:10039000F6EE000AC1ED050AF6EE000AC1ED060A06
:1003A000F6EE000AC1ED080ADFED050AC1ED030A09
:1003B00081ED040A81ED020A70470000CC40002064
:1003C0006F12833A70B50546024C204601F09AFB45
:1003D00070BD0000543200200021014A11707047A6
:1003E000CC4000200146014840787047CC400020B6
:1003F000704700001FB50446044801A90EC90EC08D
:100400000C380EC8204600F03DF91FBD8C38002086
:1004100070B505460C46064884600279214605A061
:10042000FCF764F802480EC8284600F02BF970BDAE
:100430008C3800206368616E676547726F75702045
:1004400025642C205478506F7765723D25640A0D21
:10045000000000000021074A11600121064A1161D5
:1004600000BF044909680029FBD00121034A11702B
:10047000704700001011004000100040473000207D
:100480000021014A117070474530002001460148A3
:1004900070470000B838002010B504462046FFF72A
:1004A000D9FF0021204600F02FF900BF084800685E
:1004B0000028FBD00020064908600120054908708B
:1004C0002046FFF7C7FF0121204600F01DF910BDAF
:1004D0000C1100404430002070B5044600250C4843
:1004E000006801280BD10B488588202201460A4864
:1004F000FCF750FB012009490870094908702046A3
:10050000FFF7A8FF0121204600F0FEF8284670BD45
:1005100000140040B83800209838002045300020F2
:100520004630002070B505460C460A4894E80E0097
:100530000EC0FFF791FA07480EC8284600F0A2F84F
:100540009FED050A09F03AFB0121284600F0DCF88E
:1005500070BD00008C3800206F12033B2DE9FC4178
:1005600005460E4601A804F0BBFB684604F069FF8F
:1005700000271E201E490860202231461D48FCF736
:1005800009FB1C48018A0183008A401C81B219487A
:100590004183042200F11801684604F0FDFE014683
:1005A00014488183FFF71EF81249C87712488778EC
:1005B000807803280FD000240AE00F498C70084689
:1005C0000EC8284600F05EF82846FFF765FF641C59
:1005D000032CF2DB02E02846FFF75EFF0648877037
:1005E0001422002101A804F021FBBDE8FC810000D9
:1005F0004C300020D83800208C38002010B504463C
:100600000748007840B10748006828B10020054934
:1006100008602046FFF760FF0348007810BD000027
:10062000473000200C11004045300020F8B5054649
:100630000E46684604F005FF0027202231460F4889
:10064000FCF7A8FA0E488778807803280FD000249A
:100650000AE00B498C7008460EC8284600F012F8D4
:100660002846FFF719FF641C032CF2DB02E0284642
:10067000FFF712FF02488770F8BD0000D83800204D
:100680008C3800201FB504469DF808001A49086000
:100690009DF8050018B14920091F086022E09DF867
:1006A000060003280AD146210398B0FBF1F201FBB2
:1006B0001200401C1049091F086013E0172103981D
:1006C000B0FBF1F201FB12009DF80610172212FB9D
:1006D0000100401C0849091F08609DF8061007A08A
:1006E000FBF704FF9DF807000349091D0860039903
:1006F00088B208F009FC1FBD0C150040486F703D22
:1007000025640A0D0000000001290ED10122144BBE
:100710001A70144A144B1A600022144B1A600122FA
:10072000134B5A6000221A600CE000220C4B1A7026
:10073000104A0D4B1A6000220C4B1A600C4B5A6089
:1007400001221A6000BF094A1268002AFBD0002269
:10075000064B0C331A600122054B9A60704700006B
:1007600047300020B8380020041500400011004038
:1007700000100040D83800200121014A1170704754
:100780004530002070B5044600200D4908700D4921
:1007900008700D4D0D4E00BF05E0002106F8011B4D
:1007A00005F8011B401C2028F7D3012008490870D8
:1007B0004FF0AA30206007A0FBF798FE204670BDDE
:1007C0004530002044300020B8380020D8380020C0
:1007D000473000204E65772052660A0D0000000069
:1007E0000146014840787047703000200021014ADE
:1007F00051707047703000202DE9F04107460948DC
:10080000C468C4F30726E5B2F043C6B2AE4202D1D3
:100810002846BDE8F0810348C16803A0FBF766FEE7
:1008200000BFF6E7703000204572726F722052638D
:100830007520446174613D25780A0D0070B5054648
:100840000C469CA0FBF752FE8B2C7BD018DC672C4F
:1008500079D00CDC2B2C77D004DC072C47D00B2C68
:1008600073D1CFE03B2C49D04B2CF9D1A6E06B2CB7
:1008700056D0732C6AD0772C1FD0872CF0D12EE065
:10088000CB2C76D00CDCAB2C61D004DC9B2C1BD0A9
:10089000A72CE5D1F4E0B72C25D0BB2CE0D11AE091
:1008A000D72C06D0DB2C30D0EB2C32D0F32CD7D188
:1008B000BAE0854801F01AFAEBE084A0FBF716FED7
:1008C000814801F0CBFAE4E082A0FBF70FFE7E48FE
:1008D00001F0D6FADDE081A0FBF708FED9E081A0A7
:1008E000FBF704FED5E082A0FBF700FED1E082A07A
:1008F000FBF7FCFD002082490880CAE081A0FBF7DD
:10090000F5FD714801F0CEFAC3E080A0FBF7EEFDE3
:10091000BFE080A0FBF7EAFD6B4801F015FAB8E0F4
:100920007EA0FBF7E3FD7648008800EB80004FF6E1
:10093000FF7101EA40007249088008460088801C67
:100940000880A6E04CE092E014E09DE07EE075A017
:10095000FBF7CCFD6A48008800EB80004FF6FF7182
:1009600001EA40006649088008460088C01C0880EB
:100970008FE011E06EA0FBF7B9FD6148008800EB45
:1009800080004FF6FF7101EA40005D49088008468B
:100990000088001D08807CE067A0FBF7A7FD584891
:1009A000008800EB80004FF6FF7101EA40005449D7
:1009B000088008460088401D08806AE060A0FBF7B8
:1009C00095FD4F48008800EB80004FF6FF7101EA6B
:1009D00040004B49088008460088801D088058E088
:1009E00059A0FBF783FD4648008800EB80004FF6D6
:1009F000FF7101EA40004249088008460088C01D96
:100A0000088046E053A0FBF771FD3D48008800EBED
:100A100080004FF6FF7101EA40003949088008461E
:100A200000880830088034E04DA0FBF75FFD3448B3
:100A3000008800EB80004FF6FF7101EA400030496A
:100A40000880084600880930088022E046A0FBF7AD
:100A50004DFD2B48008800EB80004FF6FF7101EA46
:100A600040002749088008460088088011E040A01F
:100A7000FBF73CFD22480188134801F027FA08E003
:100A80003DA0FBF733FD04E021463EA0FBF72EFD21
:100A900000BF00BF1A48008842F2107190FBF1F2CB
:100AA00001FB120016490880084601883BA0FBF7AD
:100AB0001DFD70BD46726F6D2070726F635263755D
:100AC000202D3E2000000000D32F00207254760A13
:100AD0000D0000007255700A0D00000072446F771F
:100AE0006E0A0D007252696768740A0D00000000FA
:100AF000724C6566740A0D00724D656E750A0D00C4
:100B00009E300020725363616E0A0D00724D757441
:100B1000650A0D00724F6E650A0D00007254776F02
:100B20000A0D00007254687265650A0D000000002D
:100B300072466F75720A0D0072466976650A0D007D
:100B4000725369780A0D000072536576656E0A0D5E
:100B5000000000007245696768740A0D000000001B
:100B6000724E696E650A0D00725A65726F0A0D0049
:100B700072506C75730A0D00724D696E75730A0DB3
:100B800000000000526375204572726F722076611A
:100B90006C75653A2025780A0D0000004E756D20B1
:100BA0003D2025640A0D00007FB5044601200B4955
:100BB00048700BA0FBF79AFC0B4800F0CDFC0B49EA
:100BC000684609F075F805462946094800F0E2FA3A
:100BD000684609F097F8204604B070BD70300020D8
:100BE0005263750A0D000000003A002005F601006E
:100BF000203A002010B52DED048B84B00446B0EEF1
:100C0000408A18EE100A09F0E9FD41EC190B9FED3E
:100C10001A0B53EC102B09F0B5FC03D89FED180A02
:100C2000B0EE408A9FED170A28EE000ABCEEC00A1B
:100C300010EE100A80B203909DF80D008DF80800A8
:100C40009DF80C008DF809000020022302AA0090F4
:100C50000D4801680D4800F0DBFB30B10CA0FBF73C
:100C600045FC00201049087002E001200E49087080
:100C700004B0BDEC048B10BD000000000000F03F8C
:100C800072F97F3F000080458832002040420020FA
:100C90004572726F7220693263207772697465429F
:100CA0007974653A200A0D008C320020C021014A77
:100CB00011607047883200207FB506460C4603203D
:100CC0008DF80000002005E0BB220DF101010A545F
:100CD000411CC8B20228F7DB6946002070DF0025FE
:100CE0000DE01B4850F8250002A941F825001848DE
:100CF00050F8251017A0FBF7F9FB681CC5B2022DB0
:100D0000EFDB9DF80F0060719DF80E0020719DF8DB
:100D10000D00E0709DF80C00A0709DF80B00607055
:100D20009DF80A0020700EA0FBF7E0FB002505E00F
:100D3000625D294610A0FBF7D9FB6D1C062DF7DB81
:100D400011A0FBF7D3FB20683060A088B0807FBD86
:100D500060000010416464723A25780A0D000000BA
:100D600046726F6D20426C65204D61632041646462
:100D7000726573733A0A0D004D61635B25645D3AD9
:100D800025782C20000000000D0A0000014A117097
:100D9000704700009432002070B504460D460020D4
:100DA00020702946204605F04FFF204670BD70B5E3
:100DB00004460D4600BF29462046FEF7C3FB00BF90
:100DC000204670BD70B50446006801220021036909
:100DD00020469847050048BF70BD206802220021C8
:100DE0000369204698470646206800222946036981
:100DF00020469847304670BD002070474C3008F0C0
:100E00008DBA10B50C464C3008F0A2FB204610BD40
:100E100000EB0110D0F88010002908BF7047096866
:100E20007430084770B504464C3008F04DFB054659
:100E300000F47C51A06C0026002818BF002906D0C1
:100E400004F13C0203684FF0010610469847A26B7C
:100E500005F0FC01002A18BF002904D0126804F133
:100E60002C00904702E0002E08BF70BDBDE8704026
:100E700008F0C8BB70B5044600680D4601682046FE
:100E80008847294604F14C0008F024FAC4F894502D
:100E9000206841682046BDE87040084770477047A9
:100EA00070B50446006801682046884704F14C008C
:100EB00008F066FB054620684168204688472846BA
:100EC00070BD00002DE9F047904689463B4A84B04A
:100ED00039491C460160D2E9023C00228360C0F817
:100EE0000CC0374B036148F207034361C261806164
:100EF00000F108020262334A4262BFF36F8FBFF310
:100F00004F8F002580F8285080F82950C56205636E
:100F100045638563C563056445648564C56405658B
:100F200045658565C565056645668566C56605676B
:100F3000022310222449743004F0DDFBA0F1740672
:100F4000AA46046206EB0A1000F174046F4600958D
:100F5000019502950395BC420DD0E1682046002919
:100F60001CBF896888473946039810B142682046FB
:100F700090470398E0600399684600291CBF896880
:100F800088470AF1010ABAF1020FDBD3424649460B
:100F900006F14C0008F0DAF906F14C00D6F894108E
:100FA00008F098F93246094906F14C0008F086FA33
:100FB00004B03046BDE8F08748AC0200A4AA0200A5
:100FC00001A090E8179D020027ED0100110E02001C
:100FD0002DE9F043054689B045480027B946286009
:100FE000CDF81090CDF81490CDF81890CDF81C9055
:100FF000286804AE07F0FF0801682846884705F016
:1010000033FB079805EB08140028D4F880001BD0A8
:10101000002808BF08F0C6FA7434B4420DD0E16865
:10102000204600291CBF89688847079818B1426884
:101030003146204690470798E0600122414605F17D
:101040004C0008F04BFA29E0002818BF08F0DAFA43
:101050006E467434CDF80090CDF80490CDF8089029
:10106000CDF80C90B4420DD0E168204600291CBF99
:10107000896888473146039810B1426820469047F6
:101080000398E0600399684600291CBF8968884777
:101090000022414605F14C0008F020FA05F02EFB35
:1010A0002868416828468847079804AA10B18168D3
:1010B000104688477F1C022F92DB022310220D4925
:1010C00005F17400FBF780FEA86C05F13C0410B13B
:1010D00081682046884754F8040C103C10B18168A0
:1010E0002046884709B0A4F12C00BDE8F083000039
:1010F00048AC0200059D020008B500F1080100900F
:10110000D0F818C0604608F0B9FA08BD01688968CF
:101110000847826900F10801104608F054BB00003E
:1011200010B50446074820600020A060E060206100
:10113000606105F087FC0449A06108F060FB20466F
:1011400010BD000060AC02000D11020010B5044695
:101150000448206004F10801A06908F034FB20462F
:1011600010BD000060AC0200002908BF70470129D3
:1011700009D0022918BF7047816A002908BF70474B
:1011800009681C3008478169002908BF7047096851
:101190000C30084770B584B00D46064605F064FA79
:1011A000E86806F11C04B8B1AC420ED0E1682046F4
:1011B00000291CBF896888473CB1E86818B14268BB
:1011C000294620469047E868E0600122022106F1A6
:1011D000080005F00FFE22E000206D46009001900F
:1011E00002900390AC420ED0E168204600291CBF5B
:1011F000896888473CB12946039810B14268204667
:1012000090470398E0600399684600291CBF8968ED
:1012100088470022022106F1080005F0EBFD04B02A
:10122000BDE8704005F06ABA70B504460C4820600D
:1012300000202071A060E06020616061A061E06139
:1012400020626062A0620D462346064A04F108004F
:1012500005F07AFD2946201D05F0CEFC204670BD24
:1012600074AC02006911020010B504460A482060FF
:1012700004F1080005F04EFDA06A1C3410B181682D
:101280002046884754F8040C103C10B18168204671
:101290008847A4F10C0010BD74AC020030B583B0D7
:1012A00005463A208DF80000CDF801506846FBF75E
:1012B00070FB040008D02868C1692846884718B127
:1012C00020460021FBF78CFB03B0204630BD000018
:1012D00070B5174C05462068002804BF201D20600B
:1012E000261DB04204D05B221249134806F0FEFBD3
:1012F00000212468114B1022084600BF53F821C07A
:10130000AC4508BF43F82100491C521EF6D10848DD
:10131000002C04BF011D01600068B04208BF70BD11
:101320005B22BDE870400349034806F0DFBB0000C4
:101330000C300020F0AD0200DCAD0200D4360020FD
:101340000021FBF74DBB10B504463C3005F050FFC3
:10135000226942B1002808BF10BD231D0146126852
:101360001846904702E0002808BF10BDBDE81040B5
:1013700008F048B907480168002904BF011D016051
:10138000001D814208BF70475B220349034806F0F5
:10139000ADBB0000B0320020F0AD0200DCAD0200B9
:1013A0002DE9F8430446006888461D460168174643
:1013B000089E204688472068016820468847DFF855
:1013C0004C90D9F80000A04206D004F13C00216EF8
:1013D00005F0D2FDC9F800402068416820468847E2
:1013E00086F0010000902B463A46414604F13C004D
:1013F00005F00CFF06462068416820468847B54244
:1014000014BF01200020BDE8F8830000AC320020AA
:101410002DE9F8430446006888461D4601681746D2
:10142000089E204688472068016820468847DFF8E4
:101430004C90D9F80000A04206D004F13C00216E87
:1014400005F09AFDC9F800402068416820468847A9
:1014500086F0010000902B463A46414604F13C00DC
:1014600005F078FF06462068416820468847B54267
:1014700014BF01200020BDE8F8830000AC3200203A
:1014800007480168002904BF011D0160001D814259
:1014900008BF70475B220349034806F027BB0000E2
:1014A000B0320020F0AD0200DCAD020070B50446A1
:1014B00000236360A360E360DFF86CC01948236118
:1014C0002060DCE9025CA561C4F81CC0DFF85CC0E8
:1014D000C4F820C048F2070CC4F824C0E362A46238
:1014E00004F1180CC4F830C0DFF844C0C4F834C0AC
:1014F000BFF36F8FBFF34F8F84F83830E3632364FB
:101500006364A364E364236563650A48A365C4E96F
:10151000173004F13C0005F055FD074804602046F3
:1015200070BD000084AC020094AA020001A090E803
:101530004D9D0200A0860100AC32002010B504468B
:10154000044820602169201D00291CBF8968884744
:10155000204610BD84AC020010B5044605F084F8A6
:10156000206858B9207F002818BF08F01BF8A06930
:1015700008F009F9C4E9020101202060BDE810402B
:1015800005F0BCB870B5054605F06EF8002405F00E
:101590006BF8286820B1A86908F0F5F8A968441A22
:1015A00005F0ACF82869241805F0A8F8204670BDAD
:1015B00010B5044600202060C4E90200C4E904001C
:1015C00005F040FAA0610120207705F04DF8A069F0
:1015D00008F0D9F8C4E902010020C4E9040005F0CC
:1015E0008DF8204610BD10B5044605F03DF8206882
:1015F00000281CBF207F002801D008F003F800203D
:10160000206005F07BF8204610BD10B5044605F0BB
:101610002BF800BF207A012803D107F0F3FF002048
:10162000207200BF05F06AF8204610BD70B52DEDA0
:10163000028B0546B0EE408A2C46F0EE488A05F053
:1016400013F800BF207A18B907F0ACFF0120207210
:1016500000BFB0EE680A204607F0B8F805F04EF873
:1016600000BF2846BDEC028B70BD7047704710B5B7
:1016700004462046FFF714FC08B1012010BD0020ED
:10168000FCE7000010B51C46029BFFF71BFC21463F
:10169000983000F07BF8054940F8981D7C31C0F87F
:1016A0009C105C39C0F8981010BD00009CAC020082
:1016B00010B5074940F89C1B7C3140F804195C398F
:1016C000016000F09BF8BDE810409838FFF780BC3F
:1016D0009CAC0200704770B5044600680D46C16CB2
:1016E000204688476069FBF7D8F82846616905F00D
:1016F00066F805462068016D20468847284670BD7B
:101700002DE9F041054600680F460C468E18C16C65
:1017100028468847B4420AD02868826C28469047F9
:10172000B0F1FF3F03D004F8010BB442F4D12868B4
:10173000016D28468847E01BBDE8F0810020704716
:1017400000207047002070472DE9F04105460068F1
:101750000F460C468E18C16C28468847B4420AD002
:10176000286814F8011B426C28469047B0F1FF3FEF
:1017700018BFB442F4D12868016D28468847E01BA1
:10178000BDE8F081002070477047000010B5104A96
:1017900040F8042B002200F00FFA041F0D482060CF
:1017A0005C306060002060610BA1204600F04EF9C3
:1017B00001000846616102D0FFF7C2FD05E0FAF7BB
:1017C000A9FD016805A004F0D5FF204610BD00006A
:1017D000FCAB020028AD0200772B00005374726549
:1017E000616D206F626A206661696C7572652C207C
:1017F0006572726E6F3D25640D0A000010B50446D7
:10180000054820605C3060606069FBF7F3F8201DDC
:1018100000F0F2F9001F10BD28AD020070B51546AA
:101820001E46044604F020FF2046FFF772FCC4E980
:101830000856A06907F0A7FFD4E9082382184B4196
:101840002046FFF759FCBDE8704004F057BF000088
:101850002DE9F0412DED028B84B004460D46B0EE2B
:10186000408A9FED0F0A28EE000A10EE101A084673
:1018700009F030F806460F462946684608F034FA63
:10188000804632463B464146204600F052F86846C4
:1018900008F038FA04B0BDEC028BBDE8F08100001E
:1018A0000024744930B585B0044604F0DDFE2046BE
:1018B000FFF72FFC606B00281EBF94F8380000284B
:1018C00007F0A0FE6D4600202834009001900290A1
:1018D0000390AC420ED0E168204600291CBF896805
:1018E00088473CB12946039810B14268204690478A
:1018F0000398E0600399684600291CBF89688847FF
:1019000004F0FCFE05B030BD10B50446D4E9080172
:10191000D4E9022312184B412046FFF7EDFB616B1F
:10192000002908BF10BD04F128000968BDE8104077
:1019300008472DE9F047054689461746984604F0C2
:1019400093FE00BF686B08B1012000E0002020B9C1
:1019500095F8380008B107F025FE05F12804CA46BD
:1019600054450BD0204608F0CDF900BF00BF261E1D
:1019700004D05146304608F0B7F9064600BF3A4653
:1019800043462846FFF74AFF04F0B8FEBDE8F0875B
:1019900010B504462046FFF7C3FB0446204600BFAF
:1019A000044607482060002104F1280008F080F96F
:1019B000A0F12804012084F83800204610BD000062
:1019C00094AD020070B5054684B01F48286004F04D
:1019D0004BFE2846FFF79DFB686B00281EBF95F85D
:1019E0003800002807F00EFE05F1280400206E469E
:1019F0000090019002900390B4420ED0E16820461E
:101A000000291CBF896888473CB13146039810B152
:101A10004268204690470398E06003996846002991
:101A20001CBF8968884704F069FE686B05F12804CB
:101A300010B181682046884704B0A4F12800BDE8B1
:101A40007040FFF783BB000094AD0200FFF726BC97
:101A500010B500F12804406B28B940F20E22054968
:101A6000054806F043F8E06801682046BDE81040EC
:101A70000847000049AE020044AE020070B50546BA
:101A80002C462046FFF74CFB0446204600BF044688
:101A90000A482060002104F1280008F009F9A0F1AB
:101AA0002804012084F8380000BF2546284600BFDE
:101AB000054603482860284670BD000094AD02002A
:101AC000A8AD020010B50446084820602046FFF784
