:020000040001F9
:10C0000000000120E9C20100F5C20100F7C20100F1
:10C01000F9C20100FBC20100FDC2010000000000E6
:10C02000000000000000000000000000FFC201004E
:10C0300001C301000000000003C3010005C30100AB
:10C0400007C3010007C3010007C3010007C30100C4
:10C0500007C3010007C3010007C3010007C30100B4
:10C0600007C3010007C3010007C3010007C30100A4
:10C0700007C3010007C3010007C3010007C3010094
:10C0800007C3010007C3010007C3010007C3010084
:10C0900007C3010007C3010007C3010007C3010074
:10C0A00007C3010007C3010007C3010007C3010064
:10C0B00007C3010007C301000000000000000000EA
:10C0C00007C3010007C3010007C3010007C3010044
:10C0D00007C3010007C3010007C3010000F002F815
:10C0E00000F0B8F80AA090E8000C82448344AAF15A
:10C0F0000107DA4501D100F0ADF8AFF2090EBAE858
:10C100000F0013F0010F18BFFB1A43F0010318478B
:10C11000F0850000108600000A444FF0000C10F873
:10C12000013B13F0070408BF10F8014B1D1108BFB5
:10C1300010F8015B641E05D010F8016B641E01F855
:10C14000016BF9D113F0080F1EBF10F8014BAD1CA5
:10C150000C1B09D16D1E58BF01F801CBFAD505E0C3
:10C1600014F8016B01F8016B6D1EF9D59142D6D31D
:10C17000704700000023002400250026103A28BF45
:10C1800078C1FBD8520728BF30C148BF0B60704749
:10C190006E2900F09286702900F08582662907F0EA
:10C1A000BB86652907F0B886672907F0B58661293F
:10C1B00007F0B48603681B0A28BF41F08001692993
:10C1C00000F0F681642900F0F381752900F0F08118
:10C1D0006F2901F0A081782900F05182E92901F04E
:10C1E0003B81E42901F03881F52901F03581EF29FF
:10C1F00001F09D81F82900F050820368DB0928BF17
:10C2000041F08001632901F0AA80732901F0AF8019
:10C21000E32901F0A387F32901F0A88700207047E4
:10C220001FB507F046FE9DE8030000F0A5FD01F0F4
:10C2300069FD04000020002107F052FD401C6060F1
:10C240000020002107F036FDE06001F09FFC00F0C7
:10C2500053FD1FBD04F080FB114603B404F090FBB6
:10C2600003BCFFF7DDFF02F001FD05F00BF8000055
:10C27000401E00BF00BF00BF00BF00BF00BF00BF27
:10C2800000BF00BF00BF00BF00BF00BF00BF00BFB6
:10C2900000BF00BF00BF00BF00BF00BF00BF00BFA6
:10C2A00000BF00BF00BF00BF00BF00BF00BF00BF96
:10C2B00000BF00BF00BF00BF00BF00BF00BF00BF86
:10C2C00000BF00BF00BF00BF00BF00BF00BF00BF76
:10C2D00000BF00BF00BF00BF00BF00BF00BF00BF66
:10C2E00000BFC5D170470000074880470748804716
:10C2F00007480047FEE7FEE7FEE7FEE7FEE7FEE74A
:10C30000FEE7FEE7FEE7FEE765EF010029280200F1
:10C31000DDC00100004870476041002070B506464E
:10C3200000F00EFD056806F10B0020F00704B44292
:10C330009CBF002070BD2B466A68BAB11068A0424D
:10C3400010D304F1080188423CBF5068586007D3FD
:10C350005168101941601168091B01605860146030
:10C36000101D70BD13465268002AE7D121462846A9
:10C3700000F0EEFC0028DED170BD70B50446051F4C
:10C3800000F0DEFC0068002C14BF446870BD002C77
:10C3900018BFAC423CBF20466468F8D301680A1855
:10C3A000AA4218BF456003D12A68054611440160BE
:10C3B00028684119A1421CBF6C6070BD616869604A
:10C3C00021680844286070BD53EA020C00F06980BF
:10C3D0002DE9F04B4FF00006002B1FBFB3FA83F599
:10C3E00003FA05F424FA05F65E4012BF1643B2FACA
:10C3F00082F502FA05F4C5F120051EBF22FA05FCFC
:10C4000044EA0C04203556EA044C4FEA144418BFA1
:10C41000641C4FF000084FF00009904271EB030CD0
:10C4200039D3002919BFB1FA81F701FA07F6B0FA3A
:10C4300080F700FA07F6C7F120071EBF20FA07FCB5
:10C4400046EA0C062037B6FBF4FCA7EB0507103FC5
:10C4500007F01F0BCBF120060CFA0BFB2CFA06F6AB
:10C4600044BFB3460026202FA4BF5E464FF0000B0A
:10C470005BEA060C08BF4FF0010B19EB0B09ABFB95
:10C48000027C48EB0608C01B06FB02CC0BFB03CC6E
:10C4900071EB0C01C1E70B46024641464846BDE838
:10C4A000F08B13B54FF000004FF00001AFF30080A8
:10C4B000BDE81C40704700007CB51D4616460C00C8
:10C4C000009001D02044401E074B7B442A46694619
:10C4D0000190304600F019FF05461CB10020694666
:10C4E00000F026FF28467CBD6D0E00000B4601467D
:10C4F000184600F041BF00000FB4044910B503AA6C
:10C50000029800F039FF10BC5DF814FBB841002020
:10C5100070B5044685690068C10601D5302600E083
:10C520002026C00707D070BDD4E9012130469047CE
:10C53000206A401C20626D1EF6D570BD70B50446A1
:10C5400085690078C00707D170BDD4E9012120209A
:10C550009047206A401C20626D1EF6D570BD70B5F4
:10C560000C460546012A05D02878800600D5EA69E0
:10C57000002302E0012305E05B1C934202D2E05C51
:10C580000028F9D1A869E618C01AA861286A1844D9
:10C5900028622846FFF7BCFF04E0D5E9012114F822
:10C5A000010B9047B442F8D32846FFF7C7FF70BD90
:10C5B0002DE9F0410646002410687529314616A57C
:10C5C00010D000F00FFC002802DA404213A507E06B
:10C5D00031688A0701D512A502E0490704D511A5E3
:10C5E000012401E000F007FC00210A2206F12407E3
:10C5F00009E0B0FBF2FCB0FBF2F302FB1C003030B0
:10C6000078541846491C0028F3D123462A46304660
:10C61000BDE8F04100F0F8BB000000002D00000074
:10C620002B00000020000000F0B40D460188090531
:10C6300002D5214C7C4402E01F4C7C440E34002186
:10C6400000F1240608E002F00F071209E75D42EA54
:10C6500003721B097754491C52EA0307F3D102788D
:10C660000023120704D5702D06D009B1022311341E
:10C670002246F0BC00F0C8BB01231034F8E770B5C7
:10C6800004460D462146106800F0B5FB02462946D7
:10C690002046BDE870400023C6E7D21D22F0070304
:10C6A000D3E90023C0E70368126843F02003036066
:10C6B0000823C3610023B7E7A47A00002DE9F05FE7
:10C6C000894604464FF0000ADFF874B1FB44C0F815
:10C6D00020A02046E1688847002874D0252806D08D
:10C6E000D4E901219047206A401C2062F1E700262E
:10C6F0005F462046E16888472028054607DB312D44
:10C7000005D2781910F8200C08B10643F1E7B007FC
:10C7100001D526F00406C4F81CA00027C4F818A010
:10C720002A2D09D0284604F01BF938B304EB8708FA
:10C73000303DC8F8185019E059F8041B204604EBA6
:10C7400087029161E1688847012F054618D1E069A9
:10C75000002820DA26F020061DE0D8F8180000EBAB
:10C76000800005EB40003038C8F818002046E1682A
:10C770008847054604F0F4F80028EED1012F0AD0CE
:10C780002E2D08D12046E16888477F1C0546022FE0
:10C7900046F02006C4DBA069002803DA404246F0D8
:10C7A0000106A061F00701D026F010066C2D0BD019
:10C7B000682D09D04C2D39D06A2D35D0742D35D047
:10C7C0007A2D33D016E038E0E1682F4620468847BE
:10C7D000B842054609D16C2F26D04FF48060E1683D
:10C7E000064320468847054604E06C2F1AD04FF4D4
:10C7F000807006430DB3A5F14100192802D82035F9
:10C8000046F400664A462946204626604E46FFF713
:10C81000BFFC80B101280BD0F61D26F0070000F107
:10C82000080956E74020E4E78020D8E70020D6E753
:10C8300006F104094DE7284652E7206ABDE8F09F5B
:10C84000347A000070B50446C068810713D08006B2
:10C8500001D5A56A04E0A169606808442169451A08
:10C86000204601F04FF9002206462946204601F0F5
:10C8700075F8304670BD002070BD70B510B1BDE8D0
:10C880007040DFE70025074C6E1E07E02046FFF7EB
:10C89000D9FF00B13546206D20F00104002CF5D100
:10C8A000284670BD6441002070B50D46044604E082
:10C8B000294604F0F8FC401C04D014F8010B0028B1
:10C8C000F6D170BD4FF0FF3070BD04F0E0BC000049
:10C8D0002DE9F0410C4607461646104600F078F860
:10C8E0002078611C61280AD0722802D077283CD1B8
:10C8F00002E00125002405E00225042402E00824CA
:10C9000048F2020511F8010B2B2806D0622809D045
:10C9100011F8010C74280AD00BE045F0030544F02F
:10C920000204EFE745F0040544F00104EAE744F0AF
:10C9300010043846214604F093F8411C15D000211C
:10C94000316171604FF40071F560F1617061200731
:10C9500004D530460222002101F000F8306D40F08D
:10C96000010030653046BDE8F0810020FBE72DE98D
:10C97000F0410D460646104C206DC10704D0410819
:10C9800004D020F00104F7E722460EE05420FFF720
:10C99000C5FC07000ED0206D47F00101084354216B
:10C9A0002065384600F040F93A4629463046BDE851
:10C9B000F0418DE70020D6E76441002011B14FF42B
:10C9C000807201E04FF480624FF4007301F042B8CE
:10C9D0002DE9F04704464FF000094FF0FF37C568D6
:10C9E000D4E90486A80707D0204601F08BF830462A
:10C9F00003F0CAFF002802DA3846BDE8F0872805B0
:10CA000002D54046FFF7B9FC4C21204600F00CF956
:10CA1000206D20F0010020654846EEE70EB5054682
:10CA200014460E4613A001F0A7FC284601F0A4FC12
:10CA300016A001F0A1FC304601F09EFC15A001F00B
:10CA40009BFC00218DF80B100A210DF10A008DF8D6
:10CA50000A1008E094FBF1F201FB124294FBF1F49E
:10CA6000303200F8012D002CF4DC01F085FC01F0DF
:10CA700029F900002A2A2A20617373657274696F8C
:10CA80006E206661696C65643A2000002C2066693E
:10CA90006C6520002C206C696E65200010B5431C6D
:10CAA00002E010F8011B71B18107FAD14FF0013299
:10CAB00002C88C1A8C4314EAC211F9D0C01A0A06B3
:10CAC00003D0C01E10BDC01A10BD0A0401D0801EC4
:10CAD00010BD0902FCD0401E10BD40EA010370B534
:10CAE0009B072ED14FF00136042A2AD308C810C95B
:10CAF0009D1B9D43121F15EAC61517D0D8B2E1B28F
:10CB0000401A50EA056110D198B2A1B2401A50EA19
:10CB100005410AD123F07F4024F07F41401A50EABA
:10CB2000052102D1180EA0EB146070BDA342DBD02A
:10CB300018BA21BA884201D9012070BD4FF0FF30E8
:10CB400070BD0AB9002070BD10F8013B11F8014B0F
:10CB500063B1A3420AD1521E08D010F8013B11F86C
:10CB6000014B1BB1A34201D1521EEDD1181B70BD68
:10CB700010B5203AC0F00B80B1E81850203AA0E878
:10CB80001850B1E81850A0E81850BFF4F5AF5FEAAC
:10CB9000027C24BFB1E81850A0E8185044BF18C95F
:10CBA00018C0BDE810405FEA827C24BF51F8043B06
:10CBB00040F8043B08BF7047D20728BF31F8023B5A
:10CBC00048BF11F8012B28BF20F8023B48BF00F8EE
:10CBD000012B704702F0FF0343EA032242EA0242BC
:10CBE00000F002B84FF000020429C0F0128010F0EB
:10CBF000030C00F01B80CCF1040CBCF1020F18BF39
:10CC000000F8012BA8BF20F8022BA1EB0C0100F0CB
:10CC10000DB85FEAC17C24BF00F8012B00F8012B9E
:10CC200048BF00F8012B70474FF0000200B51346D3
:10CC300094469646203922BFA0E80C50A0E80C503C
:10CC4000B1F12001BFF4F7AF090728BFA0E80C50ED
:10CC500048BF0CC05DF804EB890028BF40F8042BE6
:10CC600008BF704748BF20F8022B11F0804F18BF53
:10CC700000F8012B704700004FF0013C50F8042BE6
:10CC800051F8043B9A4221D1A2EB0C03934313EADF
:10CC9000CC1317D150F8042B51F8043B9A4215D10C
:10CCA000A2EB0C03934313EACC130BD150F8042BE3
:10CCB00051F8043B9A4209D1A2EB0C03934313EAC7
:10CCC000CC13DBD04FF00000704700BFD01A01BA80
:10CCD000B1FA81F101F0180122FA01F0CB40C1F163
:10CCE0002001DBB2C0B2C01A2CFA01F3D11A914371
:10CCF00011EAC311E6D1704770B5064C7C44064D6D
:10CD00007D4403E0206820448047241DAC42F9D1D3
:10CD100070BD00004C7B0000A47B00002DE9F041B9
:10CD200017460E46054633B107FB0354E41B204665
:10CD3000B047A542FAD1A5F10800BDE8F081000096
:10CD40000048704760420020704770477047704746
:10CD500038B504460A460020694601F024FB002845
:10CD600008BF38BD02460099204600F0CFFF0120E1
:10CD700038BD012001F0E1BAF8B501F009FB054624
:10CD800000200C46102000BF0646A819A0420DD96D
:10CD900032466946002001F006FB070008BF01F09B
:10CDA000CCFA0098A04218BF0546C419FFF7C8FF87
:10CDB00005600746F01D20F007004619284600F0E0
:10CDC0000AF8B44208BFF8BDA21B31463868BDE876
:10CDD000F84000F09BBF00210160C0E901107047DE
:10CDE0001020704709684A0501D540B27047C9054F
:10CDF000FCD500B2704709684A0501D5C0B270473A
:10CE0000C905FCD580B270472DE9F0470D4699461B
:10CE10009246044600F124080168880604D5E069BA
:10CE200021F01001216000E00120A84201DD471B34
:10CE300000E00027A1697A1902EB0900081AA06135
:10CE40002078C00602D42046FFF762FB002608E0E7
:10CE5000D4E901211AF806009047206A401C761C8C
:10CE600020624E45F4DB2078C0060AD52046FFF745
:10CE70004FFB06E0D4E9012130209047206A401C96
:10CE80002062381EA7F10107F4DC07E0D4E9012194
:10CE900018F805009047206A401C2062281EA5F162
:10CEA0000105F3DC2046FFF749FB2078000602D598
:10CEB0000220BDE8F0870120FBE711680268006AE4
:10CEC000530501D508700AE0D30501D5088006E0B6
:10CED000130603D5C217C1E9000200E00860012073
:10CEE000704770472DE9FF4F0C461E464FF0FF3745
:10CEF0008BB0D2E90001DDF860800A908A46C1F368
:10CF00000A5505B93D46002108464FF00000BAF128
:10CF1000000F00F4400005DA00EB80004FF4400100
:10CF200001EA50004FEA9059B9F1010F00DDB9460E
:10CF30000A9850EA4A000ED044F61050A5F2FF3588
:10CF400045432F14B8F1000F1ED07542291E1EDD77
:10CF5000C9F100021CE0B8F1010F4FF0000001D050
:10CF6000302103E0F24305E02154401CB042FBDBDA
:10CF700030460022002121540B99C1F80880C1E9F4
:10CF800000200FB0BDE8F08FBD1B6D1CDEE74A46E8
:10CF900000DA694206A801F0EDF806AB93E8070055
:10CFA00003AB83E8070050460A9901F097FA8DE831
:10CFB0000700A0F500501F3800900398002D0ADDEF
:10CFC00042F21F014A460844002303A90390684621
:10CFD00001F000FD09E0A0F500504A461F3800238B
:10CFE00003A90390684601F00AFD8DE807000004DC
:10CFF000000C03D04FF0FF30410800E01046B8F1BC
:10D00000000F03D00022009215461EE0751E05D4C5
:10D0100000F096FE303262556D1EF9D5B3460122FE
:10D02000084302D000227F1C04E02078302801D180
:10D0300000227F1E002A099784D01DE0112D07DAF7
:10D0400000F07EFE303262556D1C50EA0102F5D1CF
:10D05000084302D00098C8B10EE00021681E05E028
:10D06000235C625C63542254401E491C8142F7DBFE
:10D07000AB46A81B401E0990002004F80B000B983B
:10D08000099AC0F80880C0E9002B7AE711264FF012
:10D09000000857E72DE9F04F88460446D21D22F0DC
:10D0A000070191B0D1E90001CDE90A0103F0D2F8FE
:10D0B00002460B98C00F01D02D2007E020688107A1
:10D0C00001D52B2002E0202101EAC000032A0990AB
:10D0D00001D0072A05DB03464146204600F0F4FF55
:10D0E0000BE12078800601D5E06900E00620B8F168
:10D0F000650F814606D0B8F1660F18D0B8F1670FFA
:10D1000070D131E00020B9F1110F009001DB112343
:10D1100001E009F101030AAA01A90CA8FFF7E2FE48
:10D12000DDE90C70002609F10105834647E0012086
:10D130004B4600904FF000470AAA01A90CA8FFF740
:10D14000D1FEDDE90DB00C995D46002610B909F15C
:10D1500001000D18B9EB050003D4C0F1FF3609F149
:10D160000105A5EB09002BE0B9F1010F01DA4FF041
:10D1700001090020B9F1110F0090484601DD11238B
:10D1800000E003460AAA01A90CA8FFF7ABFEDDE9FF
:10D190000C704D4600268346207800070AD4AB4524
:10D1A00000DA5D4601A8012D04DD411911F8011CCA
:10D1B000302907D04F4502DA17F1040F04DA0120B5
:10D1C00082460FE06D1EEEE7002F02DCED1B3E44B1
:10D1D00003E0781CA84200DD7D1CB81B00F1010AA9
:10D1E0004FF000472078000703D4AA4501DB4FF039
:10D1F000FF3A0021B7F1004F0DF143088DF84310BD
:10D2000024D002202B23002F01DA7F422D230A2174
:10D21000021EA0F1010000DC5FB197FBF1FC97FB5F
:10D22000F1F201FB1C7C17460CF1300C08F801CD23
:10D23000EEE7A8F1010003702188090501D5452119
:10D2400000E06521A0F1010800F8011C09980FA970
:10D25000A1EB0807FF1D00B10120411901EBEA70A5
:10D26000A1693844081A401EA0612078C00602D483
:10D270002046FFF74DF9099828B1D4E901219047DC
:10D28000206A401C20622078C00622D52046FFF785
:10D290003FF91EE0002E04DBB34502DD01A8805DEE
:10D2A00000E03020D4E901219047206A401C206230
:10D2B000761CAAF101005FEA000A0AD100F022FD03
:10D2C000C0680168405CD4E901219047206A401C95
:10D2D0002062281EA5F10105DCDC07E0D4E901216C
:10D2E00018F8010B9047206A401C2062381EA7F1F5
:10D2F0000107F3DC2046FFF721F9032011B041E6D6
:10D3000001694A1C02610878704700B58FB0CDE909
:10D3100001310021059105497944CDE903101146F9
:10D320006846FFF7CBF90FB000BD0000E5FFFFFF37
:10D330000A6802F8010B0A607047D1E900239A429B
:10D3400002D2531C0B601070704710B5436913B1C3
:10D35000AFF3008001E0FFF702F9012010BD127861
:10D3600000F124010A7000224A700122EDE71168E1
:10D370004FF0FF32E9E70000074B70B50D467B44E4
:10D38000FFF7C3FF0446284600F0DCF810B14FF069
:10D39000FF3070BD204670BD253F00002DE9FF5FC6
:10D3A00015468A460446DFF8AC80F8440027D8E9E1
:10D3B00000103E46CDE9001010E03AF816106A461B
:10D3C00002A800F087FF411C07D02178890603D509
:10D3D000E269391891420DD80744761C20788006FE
:10D3E00002D5E069B84205DDAE42E6DB3AF8160048
:10D3F0000028E2D1A069C01BA0612046FFF788F891
:10D40000D8E90010CDE90010002017E03AF8181014
:10D410006A4602A800F05EFFB0F1FF3F81460BD0E4
:10D4200000250DF1080B05E0D4E901211BF80500EA
:10D4300090476D1C4D45F7D308F10100B04280467E
:10D44000E4DB206A384420622046FFF777F8BDE825
:10D45000FF9F00006A6D00002DE9F0418046D21D5B
:10D4600022F007020025D2E90002F52915A614D002
:10D47000011E72F1000106DA0023D0EB030063EB1A
:10D48000020211A608E0D8F800108B0701D50FA6FC
:10D4900002E0490701D50EA601251146002408F136
:10D4A000240704E000F04CFC30323A55641C50EA8A
:10D4B0000102F7D12B46324621464046BDE8F041F5
:10D4C000FFF7A2BC000000002D0000002B000000B0
:10D4D0002000000030B4002100F1240408E002F034
:10D4E0000705D208303542EA4372DB086554491C0F
:10D4F00052EA0305F3D10468002310A2250707D5DB
:10D50000A40600D421B1C46901230DA2641EC46124
:10D5100030BCFFF779BC10B5044621461068FFF710
:10D520006AFC02462046BDE810400023D2E7D21D27
:10D5300022F00701D1E90023CCE700000000000041
:10D5400030000000007B00F08000704770B50D4691
:10D5500001461446D36850692A4603F081FB00282F
:10D5600007DA411C07D0E16820F0004041F4804117
:10D57000E160281A70BD204600F090FA4FF0FF30AD
:10D5800070BDC1680022026021F4805141F0400169
:10D5900011F4C06FC16001D08260704702694168B8
:10D5A000891AC269891A816070472DE9F0470446DB
:10D5B000C06840F48000E060010312D520F4002030
:10D5C000E060810606D4E26A61688A4200D80A46B1
:10D5D000511A216040F40010E06094F82500BDE885
:10D5E000F08720F40010E060800602D5204600F0AD
:10D5F000ACFAE06842F281014FF0FF3901400129A5
:10D6000003D0204600F04AFAB6E02168002600293F
:10D610000ADAC94340F480502160C4E902606068BE
:10D62000411C61600078DAE744F2400108420CD006
:10D6300020F4A04040F040002660E060216960686E
:10D64000401AE169401AA06096E0216991B9C003CF
:10D6500010D4E069FEF762FE2061B0B1E06840F4EA
:10D66000006010F4407FE06002D140F48070E06020
:10D6700020696060E068D4F814A0C1061AD5C00320
:10D680000ED5204600F03EFA14E004F1240020619B
:10D690000120E061E06820F4407040F48060E6E73B
:10D6A00021696068401AA1690144504603F010FBEB
:10D6B0000028A6DBE068C0032AD56168E06A8842DA
:10D6C00000D808462169451AE069471B1BD020464F
:10D6D000D4F8188000F016FA08EB05015046C4F89B
:10D6E000188003F0F5FA00288BDBE06840F4003086
:10D6F000E060000202D5A0692844A061E1692069C8
:10D70000C91B45180DE0204600F0FCF9E769F5E774
:10D7100025696168D4E90607491BE562084465602C
:10D72000A061E06820F0100010F4C06FE06002D04B
:10D73000204600F0B3FDE06840F48050C4E9026088
:10D74000000205D52069E06260606FF0010046E7E5
:10D75000224639462846FFF7F9FE411C0CD029180D
:10D76000E16258B1401E2060681C6060E06840F4CF
:10D770000030E060287832E7484630E765602046B0
:10D78000FFF7FFFEF8E72DE9F04705460C46C868AD
:10D7900020F4201040F48000C860800602D50846BE
:10D7A00000F0D3F9E06841F282014FF0FF39014007
:10D7B000022903D0204600F071F9B5E000F42041C1
:10D7C000B1F5004F0FD1C00306D56168E06A884209
:10D7D00000D80846606006E02069E0626060606929
:10D7E00003F0F8F8A061A0680022EEB200280DDA7C
:10D7F000E1688B050AD4C043A06041F490302260F8
:10D80000E0606068411C61600670A5E0E0689046D9
:10D81000226040F40050E060206968BB606903F05A
:10D82000FFF8012704F12405A0B1A08910F4407F7E
:10D8300008D0E069FEF772FD206118B1E06840F49D
:10D84000006016E0E7612561E06820F4407040F474
:10D8500080600EE0E069FEF761FD00282061F1D0F4
:10D86000E06840F4006010F4407FE06002D140F4D2
:10D870008070E06020696060E06825696FF0010AEF
:10D88000C1051FD56168E06A884200D80846411B7F
:10D8900004D02246284600F00BF9F0BBE0680102F4
:10D8A00003D5E562C4E9015854E0691CE162616096
:10D8B000E16940F48030491EC4E9021030462E7000
:10D8C000BDE8F087010202D500F480320AE060680A
:10D8D000411C61600670E0680A2E40F48030E06010
:10D8E00006D00022E16A6068814203D90B4602E05B
:10D8F0000122F7E70346A7895B1B7F0503D4E7698D
:10D900009F4200DDE2B1814200D80146E5620F1A74
:10D91000C4E90158002B09DD00E005E02246194664
:10D92000284600F0C5F808B14846C9E747B1A069E4
:10D93000E5626560C01BA061E06840F01000E06037
:10D94000E068000208D56168A069E562491B0844E7
:10D950006560A0615046B3E73046B1E72DE9F0417C
:10D96000044616460D464769007B80072ED0384690
:10D9700003F056F850BB3EB3012E02D0022E25D143
:10D9800004E0204600F068FC05441DE0384603F042
:10D9900021F8E168002841F01001E16005DA204635
:10D9A00000F07CF80120BDE8F081C9030BD5626866
:10D9B000E16A914200D81146A26911442269891A8C
:10D9C000814200DD08460544002D01DA0220EAE725
:10D9D000E16A6068E268814206D29103E06203D5A1
:10D9E00022F4003141F01002A6690027AE4213DC98
:10D9F000E16A814201D90B4600E0034603EB060CC5
:10DA00002369ACEB030CAC4506DD814201D98C46A1
:10DA100000E084469C4505D1A760276042F02000C5
:10DA2000A5620DE0AD1BE669AE1B8142A66000D980
:10DA30000846C01A281A20605819606022F0200099
:10DA400003490840E060002084F84870ABE700001C
:10DA5000BFCFD7FF70B5C468A50713D0650211D436
:10DA6000B2F5807F09D0B2F5007F06D0B2F5806FA5
:10DA700008D1012300F1240106E05D1E6FF07F460E
:10DA8000B54201D3012070BD0161C361416024F43E
:10DA900070611143C160002070BD0000C16821F4B5
:10DAA000001141F08001C160002181600160704778
:10DAB0002DE9F047814614460E464FF0FF383248B4
:10DAC000D5685769054209D03846A16903F000F9C5
:10DAD000002811DB2C48C0430540E5602B46324648
:10DAE0004946384603F01CF9A16920F00042B21AF9
:10DAF00011440028A16103D02046FFF7CFFF404624
:10DB0000BDE8F08770B504460569C06A616888425F
:10DB100000D80846E16821F42011E160C90312D55C
:10DB2000A84208D02246411B2846FFF7C1FF10B18A
:10DB30004FF0FF3070BD0020E562C4E90150E0689D
:10DB400020F48030E060002070BD10B50446C0684D
:10DB500020F02000E060A16AA06988420DD0204634
:10DB6000FFF7D0FFE06820F4405040F01000E06084
:10DB7000A06AA0612069E062606044F24001E06850
:10DB80008843E06010BD00001000020010B542485C
:10DB90005421FFF749F841485421FFF745F8404820
:10DBA0005421FFF741F83F493B483C4A3F4B08604E
:10DBB0003D490A603A491960531C0365481C1065C9
:10DBC000012008653B48344A39A17844FEF780FEBD
:10DBD00020B9384878440A3800F0A8FB37482F4A63
:10DBE00035A17844FEF774FE20B9344878440A38E9
:10DBF00000F09CFB32482A4A2FA17844FEF768FEC9
:10DC000020B92F4878440A3800F090FB402322487E
:10DC1000DC0000212246FFF71DFF20B12548784493
:10DC2000543800F083FB1D48224640230021FFF7B3
:10DC300011FF20B121487844543800F077FB184890
:10DC4000224610230021FFF705FF002806D01C48BC
:10DC50007844BDE81040563800F068BB10BD10484D
:10DC600070B5006D20F001040B48FEF7B1FE0B48C3
:10DC7000FEF7AEFE0A48FEF7ABFE09E0206D20F08D
:10DC800001052046FEF7A4FE2046FEF776FB2C4653
:10DC9000002CF3D170BD000064410020B841002089
:10DCA0000C420020C0310020C4310020C8310020C7
:10DCB00072000000926300007700000081630000A2
:10DCC0007163000010B5002000F029FBAFF3008065
:10DCD000BDE81040012000F00FB810B500F034FB93
:10DCE000BDE8104000F016BB08B569468DF800008D
:10DCF0000320ABBE08BD000001491820ABBEFEE703
:10DD00002600020000487047644200200346406835
:10DD10008C46002818BF88423CBF03464068F8D3B1
:10DD200018681844884207D00CF1030020F007005F
:10DD3000001D411A521A0146081D0A60FEF71DBB5C
:10DD400030B5B0F10A024FEA900E71F100034EEACD
:10DD5000817EB0EB0E0061EB91014FEA101E4EEA9E
:10DD6000017E10EB0E0041EB11114FEA102E4EEA2E
:10DD7000016E10EB0E0041EB11214FEA104E4EEAFE
:10DD8000014E10EB0E0041EB1141401841F1000132
:10DD90004FEAD00040EA41704FEAD10110EB800514
:10DDA0004FEA810444EA907444EB01046D1944EB9A
:10DDB0000404521BA3414FF0000348BF0A3200D5B0
:10DDC00030BD401C41F1000130BD00002DE9F04F95
:10DDD00004460D46D21D22F0070089B0D0E9009715
:10DDE0004846394602F036FA0246F80F01D02D2394
:10DDF00007E02068810701D52B2302E0202101EAFA
:10DE0000C0038DF820300BB1012000E00020032A70
:10DE1000824601D0072A04DB2946204600F054F947
:10DE20003FE12078800601D40D2500E0E569C7F3C5
:10DE30000A560D2D49DA00214FEA175B08464FF0CC
:10DE40000000002F00F4400007DA00EB80004FF4E0
:10DE5000400100EBD07001EA60008115012901DD6D
:10DE60004FF0FF3100224FEA850CBCF1180F06D3AA
:10DE70001346ACF118004FF08052C24003E04FF45B
:10DE8000801323FA0CF30CF10C0CBCF1200F04D31B
:10DE9000ACF1200C09FA0CF001E007FA0CF00029B3
:10DEA0004FF0004801DD18B90FE00ED140450CD30A
:10DEB00019EB02095F4121B9404502D19F4329EA8C
:10DEC0000209BBEB175F00D0761C2088000502D545
:10DED0007B48784402E07A487844193808AA30230D
:10DEE00002F80A30037C0AF10101002E0AF1020A4D
:10DEF00053546A4602DC4FF0300101E04FF031012B
:10DF00004FF001088DF8001002D0A6F2FF3603E0B2
:10DF100059EA470100D06B4E002D02DC2178090739
:10DF200004D54FF002082E218DF80110C4460021BF
:10DF30000BE0C7F303433F01C35C491C6D1E02F8AD
:10DF40000830052908F1010801DA002DF1DC002173
:10DF50000CE000EB1973491C1B786D1E082902F8B0
:10DF600008304FEA091908F1010801DA002DF0DC48
:10DF700021688B0602D516E0A8F10108E04505DD11
:10DF800002EB080313F8013C302BF5D0B8F1000F79
:10DF900009DD02EB080313F8013C2E2B03D109071E
:10DFA00001D4A8F10108002D05DD3E2102F808107A
:10DFB0006D1E08F10108407C002E02F8080008F1EF
:10DFC000010804DA2D20764202F8080002E02B2036
:10DFD00002F808000A214FF47A70864208F101081D
:10DFE0000BDB96FBF0F3303302F8083096FBF0F3CE
:10DFF00008F1010800FB136601E0642E0CDB6420CD
:10E0000096FBF0F3303302F8083096FBF0F308F19A
:10E01000010800FB136601E00A2E06DB96FBF1F017
:10E02000303002F8080008F1010896FBF1F001FB1E
:10E030001060303002F80800A16908F1010808EB0F
:10E04000050202EB0A00081AA0612078C00602D47B
:10E050002046FEF75DFA216A08AE01EB0A00206255
:10E0600004E0D4E9012116F8010B9047BAF1010A46
:10E07000F7D22078C00602D52046FEF749FA6E4650
:10E0800009E016F8010B3E280FD0D4E90121904792
:10E09000206A401C2062B8F10108F2D22046FEF747
:10E0A0004DFA09B00320BDE8F08F206A28442062B1
:10E0B00003E0D4E90121302090476D1EEBD3F8E74F
:10E0C0005D62000002FCFFFF2DE9F0411F4604469F
:10E0D00003260168072A01F4006004DB08B116A5D5
:10E0E00005E016A503E008B115A500E015A521F08F
:10E0F00010002060A069C01EA0610FB1401EA06189
:10E100002046FEF705FA4FB1D4E901213846904781
:10E11000206A401C2062C01C206206E0206AFAE7E8
:10E12000D4E9012115F8010B9047761EF8D220465C
:10E13000FEF704FABDE8F0814E414E006E616E00BC
:10E14000494E4600696E660010B5436913B1AFF3DE
:10E15000008001E0FFF722F9012010BD128800F1D4
:10E16000240182840022C2840122EDE711684FF06D
:10E17000FF32E9E72DE9F047814616468AB0354877
:10E1800078440DC88DE80D0032487844801C03ACFB
:10E190000DC884E80D0041F69B300844372190FB00
:10E1A000F1F290FBF1F5A5F1800501FB12041B3C97
:10E1B00002D56442012000E00020DFF898A08046EC
:10E1C0000027FA44AAF1BE0A0EE0E0070AD0324660
:10E1D000684607EB470101230AEB810100F00FFCC1
:10E1E0008DE8070064107F1C002CEED1194F7F448E
:10E1F000AE3F19E0E80715D007EB04100DF1180A3F
:10E2000090E80E008AE80E00C068F04201D198192B
:10E2100008903246012306A903A800F0F0FB03ABE7
:10E2200083E807006D10641C002DE3D14FF001035B
:10E2300032466946B8F1000F03A802D000F0CAFBCD
:10E2400001E000F0DCFBC9E90001C9F808200AB0D0
:10E25000BDE8F0874060000010B50146C268900735
:10E2600003D0900607D5886A0AE0FEF753F801212B
:10E270000160881E10BD8B69486818440B69C01A7C
:10E2800091F848301BB191F84910401A10BD1103A4
:10E29000FCD50028FADD401E10BD000070B5054613
:10E2A00040F202260A4C0FE094F85000C00708D054
:10E2B000AC4206D0E06836EA000002D12046FEF704
:10E2C000C1FA206D20F00104002CEDD170BD0000DA
:10E2D0006441002070B516460C46054600F082F8F1
:10E2E000036893F80101012806D0FF2C0FD8185DB0
:10E2F00068B101202C7070BDD3F807013246214669
:10E3000003F2071303442846BDE8704018474FF056
:10E31000FF3070BD002801D0FFF7EEBC704710B58C
:10E3200000F082F8BDE81040FFF7F4BF10B500F030
:10E3300093F8BDE81040FFF7EDBF10B500F0A6F868
:10E34000BDE81040FFF7E6BF10B5002102A000F0C5
:10E3500051F8012010BD00005349475056464E3A2F
:10E360002050757265207669727475616C20666ED6
:10E370002063616C6C65640010B50449FEF794FA83
:10E38000BDE810400148FEF778BA00000C420020BA
:10E39000124B694600F580528A421A6001D8114634
:10E3A00070471960704730B50C4D6B46A3F580532C
:10E3B0002C6822449A420FD89B1A02F5805003EB36
:10E3C000D37302EB6303984200D91846C01D20F0B6
:10E3D00007020C60101B2A6030BD0000CC31002009
:10E3E0007047000010B5FFF78DFC001D10BD00BF89
:10E3F000F158000070B505460C460A2000E06D1C7F
:10E40000FFF772FC35B128780028F8D102E0641CCF
:10E41000FFF76AFC14B120780028F8D1BDE87040FD
:10E420000A20FFF761BC000010B5002102A0FFF731
:10E43000E1FF012010BD0000534947414252543AC8
:10E440002041626E6F726D616C207465726D696ED1
:10E450006174696F6E00000010B5014602A0FFF7FD
:10E46000C9FF012010BD0000534947525452454492
:10E470003A2052656469726563743A2063616E275D
:10E4800074206F70656E3A200000000010B50128FE
:10E4900005D0002103A0FFF7ADFF012010BD09A1A9
:10E4A000F8E7000053494752544D454D3A204F7507
:10E4B00074206F662068656170206D656D6F72797C
:10E4C000000000003A2048656170206D656D6F7234
:10E4D0007920636F72727570746564005FEA400C36
:10E4E00008BF91F0000F4FEA8C234FEAC12243EAA4
:10E4F00051514FEA1C5018BF00F5F0404FEA300070
:10E5000018BF41F000415FEA6C5C00F02980BCF16B
:10E51000FF3F08BF40F080407047130C06BF120455
:10E520004FF0100C4FF0000C130E04BF12020CF150
:10E53000080C130F04BF12010CF1040C930F04BF5D
:10E5400092000CF1020CD30F04BF52000CF1010C2D
:10E5500011464FF00002A0F11F00A0EB0C00704725
:10E5600011F0004F08BF704731F000413FF4D5AFC4
:10E570000B0C06BF09044FF0100C4FF0000C0B0EF3
:10E5800004BF09020CF1080C0B0F04BF09010CF1C8
:10E59000040C8B0F04BF89000CF1020CCB0F04BFDD
:10E5A00049000CF1010CCCF12003A0EB0C0022FA85
:10E5B00003F302FA0CF241EA030100F10100704793
:10E5C00020F07F4C80EA030023F07F47ACEB070389
:10E5D00003F57C5300F0004003F1FF032DE980496F
:10E5E0004FEA154B09B44FEA144325EA0B4E24EACF
:10E5F00003480FF2042606EB132749083E785FEA2A
:10E60000320203FB0667C7F5000707FB06F64FEA71
:10E6100054374FEAD64606F1020607FB066CCCF1EA
:10E62000005C4FEA1C472CEA074C07FB06F40CFB86
:10E6300006F504EB15464FEA961634BF00204FF05E
:10E6400000404FEAD13706FB07FC4FEA1C4C0CFB9D
:10E650000BF7D21B03FB0CF761EB07010CFB0EF76A
:10E66000B0EB074072EB17420CFB08F734BFA2EB8C
:10E670000742B2EB074261EB17414FEA0C444FEA05
:10E68000910706FB07FC4FEA1C4C0CFB0BF7B0EBA9
:10E69000C74072EB573203FB0CF734BFA2EBC74203
:10E6A000B2EBC74261EB57310CFB0EF7B0EBC70082
:10E6B00072EB57720CFB08F734BFA2EBC702B2EB48
:10E6C000C70261EB5771039F4FEA816141EA9211E2
:10E6D00004EBCC044FEAD1374FEA826206FB07FC19
:10E6E00042EA90124FEA80604FEA1C4C0CFB0BF799
:10E6F000D21B03FB0CF761EB07010CFB0EF7B0EB31
:10E70000074072EB17420CFB08F734BFA2EB07423D
:10E71000B2EB074261EB17414FEA8C554FEA910784
:10E7200004EB9C2406FB07FC4FEA1C4C0CFB0BF78C
:10E73000B0EBC74072EB573203FB0CF734BFA2EBD0
:10E74000C742B2EBC74261EB57310CFB0EF7B0EB9F
:10E75000C70072EB57720CFB08F734BFA2EBC7027D
:10E76000B2EBC70261EB577115EB4C254FEA8161A3
:10E7700041EA92114FEA82624FEAD13742EA90129F
:10E7800006FB07FC44F100044FEA80604FEA1C4C92
:10E790000CFB0BF7D21B03FB0CF761EB07010CFB27
:10E7A0000EF7B0EB074072EB17420CFB08F734BFD3
:10E7B000A2EB0742B2EB074261EB174115EB1C15C8
:10E7C0004FEA813141EA92414FEA823242EA904275
:10E7D0004FEA80304FEA0C7644F1000448EA0343E4
:10E7E0004EEA0B484FF0000EB2EB080C71EB03073A
:10E7F00024BF624639464EEB0E0E4FF0000B001858
:10E80000524149414BEB0B0BB2EB080C71EB030788
:10E810007BF1000B24BF624639464EEB0E0E4FF0E3
:10E82000000B0018524149414BEB0B0BB2EB080CAB
:10E8300071EB03077BF1000B24BF624639464EEBB8
:10E840000E0E51EA020718BF46F0010616EB0E76CF
:10E8500055F1000254F1000103D5BDE88901BDE87E
:10E860000088BDE88901BDE80048B619524141EB76
:10E870000101A3F10103704780807F7E7D7C7B7A5C
:10E880007978777676757473727171706F6E6E6D5C
:10E890006C6C6B6A6A696868676666656464636302
:10E8A00062616160605F5F5E5E5D5D5C5C5B5B5A88
:10E8B0005A595958585757565655555554545353F5
:10E8C00052525251515050504F4F4F4E4E4D4D4D50
:10E8D0004C4C4C4B4B4B4A4A4A494949484848479B
:10E8E00047474746464645454544444444434343D9
:10E8F0004342424242414141002B9C4630D4770082
:10E900002BD01CB54FEA370703B44FF010004FF07F
:10E910001001BAF1000F06D0BCF1000FDCBF40F0CF
:10E92000080040F008014FF000000FBCBDE81040A7
:10E930000BF1010BBBF1010F08BF5FEA170722BF04
:10E9400012F1010211F101014FF0004143F1000306
:10E9500000F0004043EA00007047F9D35708D0E7C1
:10E9600046EA064613F1400F4FEA16461FDD13F143
:10E97000200FDFBF16430A46002120335B42BED082
:10E98000C3F1200746EA064602FA07F74FEA1646A1
:10E9900046EA0706C3F1200722FA03F201FA07F755
:10E9A00021FA03F14FF0000342EA0702A7E746EA23
:10E9B000020646EA06464FEA164646EA0106BCBF8C
:10E9C00046EA0646360C4FF000034FF000024FF0C7
:10E9D000000194E72DE9804C9A46934670B491E883
:10E9E000380007C831EA400C48BF34EA430C03D56D
:10E9F000FFF7E6FDFFF780FFF0BCBDE8008C2DE9D6
:10EA0000804C9A46934670B491E8380007C810F0DD
:10EA1000804F08BF13F0804F03D100F005F8FFF7D7
:10EA20006BFFF0BCBDE8008C20F07F4780EA03005C
:10EA300023F07F4C07EB0C03A3F57C5300F0004060
:10EA4000A3F1FE0392F0000F00F0B38095F0000FE9
:10EA500000F077802DE901494FEA11404FEA144652
:10EA600021EA004800FB06FC24EA064708FB06F6FC
:10EA700007FB08F800FB07F718EB06484CEB164CB1
:10EA80004FEA124B18EB07484FEA15464CEB17407C
:10EA900022EA0B4E0BFB06FC25EA06470EFB06F6A8
:10EAA00007FB0EFE0BFB07F71EEB064E4CEB164C5E
:10EAB0004FF000061EEB074E4CEB174B18EB0B0804
:10EAC00040F1000018EB0E0B58EB000840F100007D
:10EAD0008F1A4FF000013CBFC943661B14BFB5EB52
:10EAE000040C00213CBFC943F61B4FEA17444EEA11
:10EAF0008E0E27EA04454FEA1C4704FB07622CEA06
:10EB0000074C05FB07F70CFB05F604FB0CFC16EBAA
:10EB1000074642EB174216EB0C4642EB1C421BEB3E
:10EB2000060658EB0202414146EA9E0601D5BDE8C1
:10EB30000189B619524141EB0101A3F10103BDE87E
:10EB400001894FEA14454FEA114724EA054621EAB4
:10EB5000074C05FB07F406FB07F70CFB06F105FB6A
:10EB60000CFC11EB074144EB17444FEA124711EB41
:10EB70000C4144EB1C4422EA074C05FB07F206FB60
:10EB800007F70CFB06F605FB0CFC16EB074642EB01
:10EB9000174216EB0C4642EB1C456A1854F1000173
:10EBA00048BF7047B619524141EB0101A3F101037F
:10EBB000704795F0000F37D04FEA11424FEA1447E3
:10EBC00021EA024624EA074C02FB07F106FB07F79D
:10EBD0000CFB06F402FB0CFC14EB074441EB174161
:10EBE0004FEA154714EB0C4441EB1C4125EA074C56
:10EBF00002FB07F506FB07F70CFB06F602FB0CFC15
:10EC000016EB074645EB174516EB0C4645EB1C4249
:10EC1000121951F1000148BF7047B619524141EB3A
:10EC20000101A3F1010370474FEA14454FEA114770
:10EC300024EA054621EA074C05FB07F106FB07F726
:10EC40000CFB06F24FF0000605FB0CFC12EB074232
:10EC500041EB174112EB0C4251EB1C4148BF70478E
:10EC6000921841EB0101A3F10103704710B503F0C5
:10EC700029FABDE8104003F073B80021016041603B
:10EC80008160C160704700002DE9F84F0027012125
:10EC9000594C3E464FF480703A46BC464FEA010A52
:10ECA00000F1804303F5C0431D68012D08D1D4F85D
:10ECB00004530D4204D0C3F800C01B680F430093F7
:10ECC000001D4900521C80B2082AE9D34B48DFF8E6
:10ECD00030910168012907D1C0F800C00068009098
:10ECE000D9F8006047F00047464D17F0FF0F1CBFF2
:10ECF0004FF00108002417D018EA070F0FD0A0002A
:10ED000000F1804101F5C041D1F81005D1F810158E
:10ED1000C0F3042055F82420C1F301419047641C3E
:10ED20004FEA4808082CE7D317F0004F1ABF002716
:10ED30004FF0FF38BDE8F88F4FF000094C462A1914
:10ED400092F860104AB221F0C000B2F1FF3F1CBF40
:10ED50000AFA00FC1CEA080F25D005EB00024FEA76
:10ED6000911192F9402055F8223013B1032902D0B5
:10ED700003E0032917D147EA0C07820002F1A04201
:10ED8000D2F800B71CEA060FCBF3014B03D0BBF15E
:10ED9000020F03D007E0BBF1030F04D1032913D006
:10EDA000002B18BF9847641C082CC8D3B9F1000F7A
:10EDB00008BFBDE8F88F12480068B0421CBF064685
:10EDC000B846B9D1BDE8F88FBBF1020F14BF4FF0C0
:10EDD000020C4FF0030CD2F800B72BF4403BC2F802
:10EDE00000B7D2F800B74BEA0C4CC2F800C709F1E3
:10EDF000010202F0FF09D3E7006000407C6100409F
:10EE00001005005080360020024A02EB80000164A9
:10EE100070470000F82E00200149024802F01CBF94
:10EE2000EC36002000C001400149024802F014BF46
:10EE3000F4360020001002400149024802F00CBFE5
:10EE4000FC3600200020024038B50E4CD4F80401F6
:10EE500048B10020C4F80401D4F8040100900A4825
:10EE60004168491C4160D4F84001002818BF04F0F3
:10EE7000A5FED4F84801002808BF38BDBDE83840D9
:10EE800002F05EBF00100140343000202DE9F04355
:10EE90002B4C83B0D4F8040100262A4D0127B8B1C9
:10EEA000C4F804618DF80060686801902648006825
:10EEB000ADF80800E868002808BF85F8276004D08E
:10EEC0006860A88A2881EE602760296868468847BC
:10EED000D4F8140100281FBFC4F8146185F8276016
:10EEE00003B0BDE8F0832C69002C19BF4FF0004837
:10EEF0004FF48C7903B0BDE8F08300BFB4FA84F01E
:10EF000028FA00F18C4309EB800000F1804101F503
:10EF1000E0410A6872B10E60A0F58C70C1088DF8EE
:10EF2000041027EA90008DF800708DF8050029681C
:10EF300068468847002CE1D103B0BDE8F0830000AB
:10EF4000007000400437002034760040014800681B
:10EF5000004700001430002001480068004700000E
:10EF60001C30002070B492480125011D03780A1D51
:10EF700008074FF0000C062B04BF0C7814F00F0F9D
:10EF800004D1147804F0F004302C0CD0062B04BF0C
:10EF90000C7814F00F0F0AD0062B04BF0C7814F075
:10EFA0000F0F19D113E0844E824C746707E0147878
:10EFB00004F0F004302C1CBF402C502CECD14FF04E
:10EFC0008054D4F844427D4EC4F342343460147803
:10EFD00004F0F004302C0CD0062B04BF0C7814F095
:10EFE0000F0F0CD0062B04BF0C7814F00F0F1AD1A2
:10EFF00014E0734C266826F08076266007E01478CB
:10F0000004F0F004302C1CBF402C502CEAD1C0F886
:10F010000CC1C0F810C16B4CC4F800C0147804F0E7
:10F02000F004302C06D0062B04BF0C7814F00F0F20
:10F030000AD104E0644B4FF0030119600BE014782F
:10F0400004F0F004302C06D0062B04BF097811F030
:10F050000F0F65D10DE05D4B4FF0050119605C4964
:10F060000D605C49C1F800C003F104034FF03F019B
:10F070001960117801F0F001502951D15649096801
:10F08000564A11605649096802F104021160554957
:10F09000096802F1040211605349096802F104028F
:10F0A00011605249096802F104021160504909686F
:10F0B00002F1040211604F4909684F4A11604F493B
:10F0C000096802F1040211604D49096802F1040265
:10F0D00011604C49096802F1040211604A4909684B
:10F0E00002F1040211604949096802F10402116049
:10F0F00047490968474A11604749096802F1040213
:10F1000011604649096802F1040211604449096826
:10F1100002F1040211604349096802F1040211601E
:10F1200041490A6842F470020A60BFF34F8FBFF38F
:10F130006F8F4FF01022D2F8001211F0004F04BF71
:10F14000D2F8041211F0004F24D0384B1D6038481B
:10F1500001680029FCD04FF01504C2F80042016894
:10F160000029FCD0C2F8044201680029FCD0C3F891
:10F1700000C001680029FCD0BFF34F8F2D48016803
:10F180002D4A01F4E06141EA02010160BFF34F8FB3
:10F1900000BFFDE72A4A294911602A490D60C0F8DD
:10F1A00004C18560D0F804110029FBD070BC704701
:10F1B000E00F00F00DF0ADBA00C007403C05004084
:10F1C000FCED00E038050040A0050040105600406E
:10F1D00088560040185600400404001020C5004026
:10F1E000080400100C040010100400101404001097
:10F1F000180400101C04001040C50040200400103A
:10F2000024040010280400102C0400103004001006
:10F210003404001060C50040380400103C040010A5
:10F22000400400104404001088ED00E004E50140B3
:10F2300000E401400CED00E00400FA050090D0036A
:10F24000303000201805004070B5534DD5F8040348
:10F25000524C10F0040F4FF000061CBFD5F8080107
:10F2600000283CD094F82400002833D0C5F8086169
:10F27000D5F81805226BA16AC0B2885494F83830CA
:10F280000021FF2B0BD0834209D1206D40F40050A8
:10F290002065B4F84C0010F4005F18BF0121501C29
:10F2A0002063E26A904204D3206D40F480702065B0
:10F2B00000E0A1B194F8540010F0020F04BF042044
:10F2C000C5F8080384F82460606B00281CBF6663DF
:10F2D000804704E0A26812B1002160689047D5F829
:10F2E000040310F0800F1CBFD5F81C01002828D0A3
:10F2F00094F8390000B3D4E91010884208D2C5F858
:10F300001C61E16B264A095C1160401C606418E0D6
:10F3100094F8540010F0010F04BF8020C5F80803D2
:10F3200084F83960206D40F004002065A06C00284E
:10F330001CBFA664804704E0A26812B10121606886
:10F340009047D5F82401002808BF70BDC5F8246196
:10F35000D5F88004C5F88004616BC0B2002908BFED
:10F3600070BD226D10F0020F42F0020222651CBF38
:10F3700042F40062226510F0040F03D0226D42F4C3
:10F380008062226510F0010F03D0206D40F4007000
:10F390002065BDE8704008470020004094370020F9
:10F3A0001C25004070B504460D4600BF94F90000CE
:10F3B000401C20B920220CA11BA002F099FD00BF27
:10F3C0003DB194F90000012181401D4A116000BF48
:10F3D00008E094F9000001218140194A121D1160D2
:10F3E00000BF00BF70BD00006D6265642F544152C4
:10F3F0004745545F4E524635325F444B2F5441527D
:10F400004745545F4E4F524449432F54415247455C
:10F41000545F4E5246352F6770696F5F6F626A6541
:10F4200063742E68000000006F626A2D3E70696E82
:10F4300020213D202850696E4E616D65294E4300A4
:10F4400008050050F0B5DDE9054541EA420646EA07
:10F45000830646EA042646EA0547024E46F820702F
:10F46000F0BD0000000700507CB504460D464DB9C4
:10F470000020009003460246014601902046FFF717
:10F48000E1FF03E00120A040014908607CBD0000CD
:10F49000180500500120014908707047D02F002046
:10F4A000704770B504460D4600202070294620465E
:10F4B00002F02AF9204670BD70B504460D4600BF23
:10F4C00029462046FFF76EFF00BF204670BD70B58D
:10F4D0000446006801220021036920469847050080
:10F4E00048BF70BD2068022200210369204698476A
:10F4F0000646206800222946036920469847304680
:10F5000070BD002070474C3003F084BF10B50C462E
:10F510004C3004F099F8204610BD00EB0110D0F8F3
:10F520008010002908BF704709687430084770B51B
:10F5300004464C3004F044F8054600F47C51A06CBD
:10F540000026002818BF002906D004F13C020368F9
:10F550004FF0010610469847A26B05F0FC01002A07
:10F5600018BF002904D0126804F12C00904702E073
:10F57000002E08BF70BDBDE8704004F0BFB870B584
:10F58000044600680D46016820468847294604F174
:10F590004C0003F01BFFC4F89450206841682046DB
:10F5A000BDE8704008477047704770B50446006872
:10F5B00001682046884704F14C0004F05DF80546D8
:10F5C0002068416820468847284670BD2DE9F047ED
:10F5D000904689463B4A84B039491C460160D2E9CD
:10F5E000023C00228360C0F80CC0374B036148F234
:10F5F00007034361C261806100F108020262334A7D
:10F600004262BFF36F8FBFF34F8F002580F8285001
:10F6100080F82950C562056345638563C563056449
:10F6200045648564C564056545658565C56505668C
:10F6300045668566C5660567022310222449743035
:10F6400000F022FEA0F17406AA46046206EB0A103E
:10F6500000F174046F460095019502950395BC4234
:10F660000DD0E168204600291CBF896888473946CB
:10F67000039810B14268204690470398E0600399D0
:10F68000684600291CBF896888470AF1010ABAF157
:10F69000020FDBD34246494606F14C0003F0D2FE8E
:10F6A00006F14C00D6F8941003F090FE324609495A
:10F6B00006F14C0003F07EFF04B03046BDE8F08751
:10F6C000304202008C40020001A090E8BB3D0200E5
:10F6D0007BEC01001BF501002DE9F043054689B0E4
:10F6E00045480027B9462860CDF81090CDF8149011
:10F6F000CDF81890CDF81C90286804AE07F0FF08EC
:10F7000001682846884701F023FD079805EB081497
:10F710000028D4F880001BD0002808BF03F0BEFFEB
:10F720007434B4420DD0E168204600291CBF8968BA
:10F730008847079818B14268314620469047079895
:10F74000E0600122414605F14C0003F043FF29E04F
:10F75000002818BF03F0D2FF6E467434CDF8009035
:10F76000CDF80490CDF80890CDF80C90B4420DD0AF
:10F77000E168204600291CBF896888473146039804
:10F7800010B14268204690470398E06003996846AC
:10F7900000291CBF896888470022414605F14C00BA
:10F7A00003F018FF01F01EFD2868416828468847CD
:10F7B000079804AA10B18168104688477F1C022F61
:10F7C00092DB022310220D4905F17400FDF7A6FA21
:10F7D000A86C05F13C0410B181682046884754F8B4
:10F7E000040C103C10B181682046884709B0A4F190
:10F7F0002C00BDE8F083000030420200A93D020069
:10F8000008B500F108010090D0F818C0604603F078
:10F810009FFF08BD016889680847826900F10801F7
:10F82000104604F03AB8000010B5044607482060BE
:10F830000020A060E0602061606101F077FE044973
:10F84000A06104F046F8204610BD000048420200C6
:10F8500015F8010010B504460448206004F10801C1
:10F86000A06904F01AF8204610BD000048420200CA
:10F87000002908BF7047012909D0022918BF704725
:10F88000816A002908BF704709681C3008478169F0
:10F89000002908BF704709680C30084770B5044656
:10F8A0000C48206000202071A060E0602061606151
:10F8B000A061E06120626062A0620D462346064AB4
:10F8C00004F1080001F0A0FF2946201D01F008FF07
:10F8D000204670BD5C42020071F8010010B504467C
:10F8E0000A48206004F1080001F074FFA06A1C348B
:10F8F00010B181682046884754F8040C103C10B1C0
:10F90000816820468847A4F10C0010BD5C420200CB
:10F9100030B583B005463A208DF80000CDF801508F
:10F920006846FDF724F8040008D02868C169284615
:10F93000884718B120460021FDF740F803B0204663
:10F9400030BD000070B5174C05462068002804BF84
:10F95000201D2060261DB04204D05B2212491348AE
:10F9600002F0C6FA00212468114B1022084600BF9D
:10F9700053F821C0AC4508BF43F82100491C521E72
:10F98000F6D10848002C04BF011D01600068B04298
:10F9900008BF70BD5B22BDE870400349034802F018
:10F9A000A7BA000004300020D8430200C44302007C
:10F9B000403600200021FDF701B810B504463C3068
:10F9C00002F0FCF8226942B1002808BF10BD231DD7
:10F9D000014612681846904702E0002808BF10BD93
:10F9E000BDE8104003F08ABE70B504460023636092
:10F9F000A360E360DFF86CC0194823612060DCE994
:10FA0000025CA561C4F81CC0DFF85CC0C4F820C06B
:10FA100048F2070CC4F824C0E362A46204F1180C95
:10FA2000C4F830C0DFF844C0C4F834C0BFF36F8FEF
:10FA3000BFF34F8F84F83830E36323646364A364B7
:10FA4000E364236563650A48A365C4E9173004F1DC
:10FA50003C0001F09DFF07480460204670BD000097
:10FA60006C4202007C40020001A090E8F13D0200DF
:10FA7000A0860100A431002010B50446044820608F
:10FA80002169201D00291CBF89688847204610BDB8
:10FA90006C42020010B5044600202060C4E9020058
:10FAA000C4E9040001F042FDA0610120207701F0CB
:10FAB0004FFBA06903F0D1FEC4E902010020C4E9B4
:10FAC000040001F08FFB204610BD10B5044601F084
:10FAD0003FFB206800281CBF207F002801D003F0D6
:10FAE0000DFE0020206001F07DFB204610BD10B50A
:10FAF000044601F02DFB00BF207A012803D103F05A
:10FB0000FDFD0020207200BF01F06CFB204610BDFF
:10FB10007047704710B504462046FFF746FD08B110
:10FB2000012010BD0020FCE710B51C46029BFFF72A
:10FB30004DFD2146983000F07FF8054940F8981DAA
:10FB40007C31C0F89C105C39C0F8981010BD0000E2
:10FB50008442020010B5074940F89C1B7C3140F8F4
:10FB600004195C39016000F09FF8BDE81040983836
:10FB7000FFF7B2BD8442020070472DE9F04105460F
:10FB800000680F460C468E18C16C28468847B44260
:10FB90000AD02868826C28469047B0F1FF3F03D016
:10FBA00004F8010BB442F4D12868016D2846884757
:10FBB000E01BBDE8F0810020704700207047002066
:10FBC00070472DE9F041054600680F460C468E1837
:10FBD000C16C28468847B4420AD0286814F8011B33
:10FBE000426C28469047B0F1FF3F18BFB442F4D1B1
:10FBF0002868016D28468847E01BBDE8F081002099
:10FC000070470FB470B504460068C16C2046884741
:10FC100006AD6069FCF731FE2A4660690599FCF77C
:10FC200065FC05462068016D20468847284670BC63
:10FC30005DF814FB7047000010B5104A40F8042B23
:10FC4000002200F0CFF9041F0D4820605C30606096
:10FC5000002060610BA1204600F024F90100084655
:10FC6000616102D0FFF7A6FE05E0FCF753FB0168D7
:10FC700005A001F0F3FA204610BD0000E4410200A7
:10FC800010430200772B000053747265616D206F82
:10FC9000626A206661696C7572652C206572726E8D
:10FCA0006F3D25640D0A000010B50446054820602C
:10FCB0005C3060606069FCF78BFE201D00F0B2F9DB
:10FCC000001F10BD1043020070B515461E460446C5
:10FCD00001F03EFA2046FFF7A0FDC4E90856A069EE
:10FCE00003F0BBFDD4E9082382184B412046FFF7FF
:10FCF00087FDBDE8704001F075BA30B585B00446A7
:10FD000001F026FA2046FFF788FD606B00281EBF31
:10FD100094F83800002803F0F1FC6D4600202834E8
:10FD20000090019002900390AC420ED0E168204612
:10FD300000291CBF896888473CB12946039810B147
:10FD40004268204690470398E0600399684600297E
:10FD50001CBF8968884701F045FA05B030BD10B571
:10FD60000446D4E90801D4E9022312184B41204685
:10FD7000FFF746FD616B002908BF10BD04F12800A4
:10FD80000968BDE8104008472DE9F0470546894657
:10FD90001746984601F0DCF900BF686B08B10120F6
:10FDA00000E0002020B995F8380008B103F076FC97
:10FDB00005F12804CA4654450BD0204603F0F4FF51
:10FDC00000BF00BF261E04D05146304603F0DEFFC0
:10FDD000064600BF3A4643462846FFF775FF01F046
:10FDE00001FABDE8F087000010B504462046FFF791
:10FDF0001BFD0446204600BF044607482060002142
:10FE000004F1280003F0A6FFA0F12804012084F8E3
:10FE10003800204610BD00007C43020070B5054646
:10FE200084B01F48286001F093F92846FFF7F5FCDD
:10FE3000686B00281EBF95F83800002803F05EFCB0
:10FE400005F1280400206E46009001900290039076
:10FE5000B4420ED0E168204600291CBF896888475B
:10FE60003CB13146039810B1426820469047039850
:10FE7000E0600399684600291CBF8968884701F043
:10FE8000B1F9686B05F1280410B1816820468847F4
:10FE900004B0A4F12800BDE87040FFF7DBBC00000F
:10FEA0007C430200FFF734BD10B500F12804406B1D
:10FEB00028B940F20E220549054802F019F8E06819
:10FEC00001682046BDE810400847000031440200A8
:10FED0002C44020070B505462C462046FFF7A4FCD2
:10FEE0000446204600BF04460A482060002104F171
:10FEF000280003F02FFFA0F12804012084F8380027
:10FF000000BF2546284600BF05460348286028460E
:10FF100070BD00007C4302009043020010B504460F
:10FF2000084820602046FFF7E8FE616B04F12800D6
:10FF300000291CBF896888472046BDE81040FFF7AC
:10FF400089BC00007C43020070B50546024803F0FE
:10FF5000DDFE044600BF70BD9C31002070B5054633
:10FF6000024803F0D3FE044600BF70BD9C31002060
:10FF70007047007B7047000070B506460D46154877
:10FF800003F0C4FE14480468F4B1A068C8B12A465E
:10FF90003146FCF7A2FDA0B9A068FCF77FFDA8429E
:10FFA0000FD10C480168002904BF011D0160001D2C
:10FFB000814204D05B220949094801F099FF20469B
:10FFC00070BD6468002CE0D1024803F09FFE002061
:10FFD00070BD0000B8310020B4310020D8430200C9
:10FFE000C443020070B504460B480026A160C4E972
:10FFF00000060D462273094803F088FE002D08BF55
:020000040002F8
:10000000666003D00648016861600460034803F03D
:100010007DFE204670BD0000BC430200B8310020C8
:10002000B431002010B5044610482060104803F099
:100030006DFEA06878B10F490868A04204BF6068EF
:10004000086008D04168A14203D008464968A1422F
:10005000FBD161684160064803F058FE207B002810
:1000600004BF201FFFF76EFC204610BDBC430200FA
:10007000B8310020B431002010B50446406818B1F2
:10008000FFF777FF012801D0002010BD606800282D
:1000900018BF001F10BD10B50446406810B1FFF72F
:1000A00068FF08B1002010BD6068002818BF001F5D
:1000B00010BD4068002818BF0120704710B5406887
:1000C000002808BF10BDFFF754FF00280CBF012017
:1000D000002010BD0068704710B504460020206065
:1000E000606008782F280DD1487858B14B1C00214A
:1000F0002360226810782F2806D038B1501C491C84
:100100002060F6E7204610BD501C20601846FFF71F
:1001100033FF6060204610BD7047000070B5044694
:1001200007480068FFF7F6FC30B101F003FAC5B2EA
:100130002946204600F00EF80248007870BD000005
:1001400048300020463000200021014A11707047DD
:100150004630002010B502467B290CD11648407865
:1001600048B90020144B1870987001205870002076
:10017000124B18701DE07D2907D101200F4B18701C
:100180000D4B18700020587013E00B48807835280C
:1001900007DD0020084B187098705870074B1870D6
:1001A00007E0054883788078401C034CA070044821
:1001B000C1540248007810BD423000204630002073
:1001C000A638002001460148704700004230002058
:1001D0000146014870470000A638002070B505466A
:1001E0000C460648046000210548FFF765F9002128
:1001F0000448FFF761F9284670BD00004830002030
:100200003D3000203E30002046210160704770479D
:1002100070B504460D46E561002084F83500206085
:1002200000BF04E00022211D21F81020401C0A28F4
:10023000F8DB0021E069FFF717F9204670BD704731
:100240007047704770479838FFF75DB99838FFF7E7
:100250005DB9704703B401984100009850EAC1208D
:1002600018BF04204A0D18BF40F0010040F2FF7291
:10027000B2EB515F08BF40F00200012808BF052023
:1002800002B07047012070472DE9F0411C46174627
:100290000E00804607D0054602E02846B0473D44A0
:1002A0002046641EF9D24046BDE8F0810020FDF7EB
:1002B00014BD000010B51E2207210448FFF794FB6F
:1002C0000446034A0349FFF7DDFF10BD7C3F0020D1
:1002D00000C0010079FA010070B5114D2C4620468E
:1002E000FFF7A2FA0446204600BF04460D482060EE
:1002F000002104F1280003F02DFDA0F128040120C5
:1003000084F8380000BF2546284600BF0546064849
:100310002E46064A064928603046FFF7B3FF70BDF7
:10032000283E00207C4302009043020000C00100F0
:100330001DFF010070B50D211648FFF7B2F813211B
:100340001548FFF7AEF81548FFF77AFF144D2C4615
:100350002046FFF769FA0446204600BF04461148CC
:100360002060002104F1280003F0F4FCA0F128042F
:10037000012084F8380000BF2546284600BF054606
:1003800009482E46094A0A4928603046FFF77AFF95
:1003900070BD00005030002051300020523000204D
:1003A000883900207C4302009043020000C0010015
:1003B0001DFF010070B51348FFF742FF124D2C4698
:1003C0002046FFF731FA0446204600BF04460F4896
:1003D0002060002104F1280003F0BCFCA0F12804F7
:1003E000012084F8380000BF2546284600BF054696
:1003F00007482E46074A084928603046FFF742FF63
:1004000070BD0000D8300020883B00207C430200F3
:100410009043020000C001001DFF010070B50B4CAD
:1004200002250B4820602046FFF78EFD2946201D3F
:1004300000F0B6FC2046FFF791FD00BF2646054AB6
:1004400005493046FFF71EFF70BD000058310020FF
:10045000A443020000C0010071FF010070B5104C00
:1004600000250020207200F073FE2946204602F08D
:1004700019FA00F0B7FE00BF26460A4A0A4930467C
:10048000FFF700FF0948FFF7DAFE0948FFF7D9FE3A
:100490000848FFF7BCFE0848FFF702F870BD0000EF
:1004A000543A002000C00100EFFA01007C30002027
:1004B0007D3000207E3000207F30002010B50848BD
:1004C000FFF708FD0446074A0749FFF7DBFE074828
:1004D000FFF700FD0446034A0349FFF7D3FE10BDB2
:1004E000983E002000C001001DFF0100D83E002002
:1004F00038B5164C2046FFF797F90446204600BF52
:10050000044613482060002104F1280003F022FC77
:10051000A0F12804012084F8380000BF25460D4AC8
:100520000D492846FFF7AEFE0C48FFF7F5FD4FF4E6
:10053000165000230822062100900948FFF7F4FA1C
:100540000446044A0749FFF79DFE38BDE03100200C
:100550007C43020000C001001DFE0100D12F0020DD
:100560002032002055FB010010B50248FFF768FE5D
:1005700010BD0000B030002038B54FF416500023F5
:100580000B22092100900448FFF7CEFA0446034AE3
:100590000349FFF777FE38BDC83B002000C00100CB
:1005A00055FB010010B511210348FEF77AFF122117
:1005B0000248FEF776FF10BD703000207130002039
:1005C00070B50E4C2046FFF72FF90446204600BFB9
:1005D00004460B482060002104F1280003F0BAFB18
:1005E000A0F12804012084F8380000BF2546054A00
:1005F00005492846FFF746FE70BD0000283D002053
:100600007C43020000C001001DFE0100F8B54FF45C
:10061000165000230B22092100901548FFF784FA99
:100620000446144A1449FFF72DFE144D2C4620466B
:10063000FFF7FAF80446204600BF04461048206041
:10064000002104F1280003F085FBA0F1280401201B
:1006500084F8380000BF2546284600BF05460948F3
:100660002E46044A084928603046FFF70BFEF8BDC5
:10067000803A002000C0010055FB0100383B0020FB
:100680007C430200904302001DFF010070B50D4C39
:1006900003250D4820602046FFF756FC2946201D03
:1006A00000F07EFB2046FFF759FC00BF2646074AB4
:1006B00007493046FFF7E6FD14210648FFF7A8FD7D
:1006C00070BD000044310020A443020000C00100BE
:1006D00071FF0100183F002010B50248FFF7B0FD80
:1006E00010BD0000FC30002010B50A48FFF7A8FD3F
:1006F0000948FFF7EFFB0446084A0949FFF7C2FD26
:100700000848FFF7E7FB0446044A0549FFF7BAFD2E
:1007100010BD00001C310020803C002000C0010002
:100720001DFF0100C03C002070B50C48FFF76CFDB8
:100730000B4C02250B4820602046FFF705FC29469C
:10074000201D00F02DFB2046FFF708FC00BF2646C9
:10075000054A06493046FFF795FD70BD6831002017
:100760006C310020A443020000C0010071FF0100B1
:1007700070B52348FFF78EF90446224A2249FFF755
:1007800081FD04212148FFF789F804461D4A2049CC
:10079000FFF778FD1F4C12250020207200F0D8FCD6
:1007A0002946204602F07EF800F01CFD00BF2646D8
:1007B000144A19493046FFF765FD184D2C4620466E
:1007C000FFF732F80446204600BF04461448206074
:1007D000002104F1280003F0BDFAA0F12804012053
:1007E00084F8380000BF2546284600BF05460D485E
:1007F0002E46044A0C4928603046FFF743FD70BD81
:10080000E038002000C00100CBFA010000390020D0
:10081000DDF801002C390020EFFA01003839002002
:100820007C430200904302001DFF010010B51E2210
:1008300007210448FFF7D8F80446034A0349FFF7A5
:1008400021FD10BDC840002000C0010079FA010060
:1008500070B50F4C2046FFF7C7FA044600BF0D489D
:1008600025460D4A0D4920602846FFF70BFD0C4830
:10087000FFF7BAFA0446084A0A49FFF703FD0A4897
:10088000FFF7B2FA0446044A0649FFF7FBFC70BDC5
:10089000683D00209043020000C001001DFF0100E0
:1008A000A83D00201DFE0100E83D002070B5114C60
:1008B0001225002020702946204600F011FF00BFBD
:1008C0000D4C1325002020702946204600F01CFF07
:1008D00000BF0A48FFF788FA0446094A0949FFF7AA
:1008E000D1FC0948FFF780FA0446054A0549FFF79D
:1008F000C9FC70BD843100208531002048400020B3
:1009000000C001001DFE01008840002010B51E221D
:1009100007210448FFF768F80446034A0349FFF734
:10092000B1FC10BDE03F002000C0010079FA0100D9
:1009300010B50648FFF784FC0D210548FEF7B1FD10
:1009400013210448FEF7ADFD10BD00003C3000202F
:100950003D3000203E30002010B500F009F810BDF9
:1009600030380A2801D2012070470020704700006B
:1009700002486A4620F00700704700007F420020CE
:1009800010B501F0A0FB10BD0328BCBF00207047CC
:1009900010B500220E4901EB800151F80C0C41F812
:1009A0000C2C68B101684969884704005CBF0020CD
:1009B00010BDFBF7AFFC614201604FF0FF3010BD8E
:1009C000FBF7A8FC092101604FF0FF3010BD0000CB
:1009D0004036002010B5032805DAFBF79BFC052103
:1009E0000160881F10BD0D4901EB800050F80C0C10
:1009F00060B10168896A8847040058BF10BDFBF7E1
:100A000089FC614201604FF0FF3010BDFBF782FCB2
:100A1000092101604FF0FF3010BD0000403600207A
:100A20000328BCBF0120704710B50C4901EB8000C2
:100A300050F80C0C58B10168C9698847040058BFC8
:100A400010BDFBF767FC61420160002010BDFBF7A1
:100A500061FC09210160002010BD0000403600202B
:100A60002DE9F0470E4684B081467449FCF704F93D
:100A7000734C20B373494846FCF7FEF800282ED08B
:100A800071494846FCF7F8F8002838D06F4C2068C8
:100A9000002804BF201D2060251DA84204D05B2231
:100AA0006B496C4801F024FA21686B4F002400BFA9
:100AB00057F8240098B3641C102CF9D332E0206856
:100AC00048B908220621654802F0BCFC4FF41651D3
:100AD000624802F07BFC04B00020BDE8F08720688B
:100AE00048B9082206215D4802F0ACFC4FF41651CB
:100AF0005A4802F06BFC04B00120BDE8F087206882
:100B000048B908220621554802F09CFC4FF41651C2
:100B1000524802F05BFC04B00220BDE8F087FFE71A
:100B2000102C15D3FBF7F6FB18210160474801682C
:100B3000002904BF011D0160A94204D05B22444981
:100B4000444801F0D5F904B04FF0FF30BDE8F0871C
:100B50004FF0FF383D4847F82480002904BF011DAD
:100B600001600068A84204D05B223949394801F08D
:100B7000BFF94FF0000ACDF808A099F800003A2814
:100B800008BFD9F8010010D049466846FFF7A4FA1B
:100B90006846FFF78EFA1325D8B36846FFF78EFA3A
:100BA0000028684608D0FFF776FA029047F824003C
:100BB00004B0E01CBDE8F087FFF75EFA48B316F01A
:100BC000020F18BF02252ED016F00C0F18BF45F4E7
:100BD000007516F0040F18BF45F480650646684698
:100BE000FFF778FA024630682B4602A9D0F808C011
:100BF0003046E047002808BF0298D7D00546FBF7EB
:100C000089FB6942016047F824A004B04046BDE872
:100C1000F087FFE7FBF77EFB056047F824A004B0F0
:100C20004046BDE8F08716F0040F18BF0125CBD170
:100C300016F0080F14BF09250025C5E7603F020024
:100C40002C300020673F02006F3F0200043000207C
:100C5000D8430200C4430200403600206C37002015
:100C600070B515460C46032812DA1648006848B9D4
:100C700008220621144802F0E5FB4FF416511248F1
:100C800002F0A4FB104802F0C5FB207001240FE025
:100C90000E4901EB800050F80C0C58B101688B68CC
:100CA00021469847040003D5FBF734FB61420160FD
:100CB000281B70BDFBF72EFB092101604FF0FF30B0
:100CC00070BD00002C3000206C3700204036002022
:100CD00010B50022032806DAFBF71CFB1D2101607A
:100CE0004FF0FF3010BD0D4B03EB800050F80C0CA3
:100CF00060B103681B699847040058BF10BDFBF73B
:100D000009FB614201604FF0FF3010BDFBF702FBB1
:100D1000092101604FF0FF3010BD00004036002077
:100D200070B515460E46032818DA1948006848B908
:100D300008220621174802F085FB4FF4165115488A
:100D400002F044FB0024002D06D9315D114802F069
:100D50007BFC641CA542F8D82C460FE00E4901EB41
:100D6000800050F80C0C58B10168CB6831469847A8
:100D7000040003D5FBF7CEFA61420160281B70BD69
:100D8000FBF7C8FA092101604FF0FF3070BD000089
:100D90002C3000206C3700204036002070470000C7
:100DA00070B50C46054682B020490720FEF72CF8A6
:100DB0001F49204801F0FCFC002818BF082805D076
:100DC0004FF039021C491D4801F092F8A01E002680
:100DD000032898BF601E07D9A4F11C00032894BF04
:100DE000A4F11700344602D810F0FF0404D13C22CD
:100DF000114913A001F07CF82E70601E68700D4838
:100E0000D0E90110CDE900108DF8064068786946F8
:100E100001F0A4FC002804BF02B070BD45220649C1
:100E200010A001F065F802B070BD00008DEE010069
:100E30009D0D0200203F0200C044020078440200E1
:100E40007361616463496E20213D204E52465F53B9
:100E5000414144435F494E5055545F4449534142D8
:100E60004C4544007265745F636F6465203D3D20AE
:100E70004E52465F535543434553530010B4EFF36E
:100E8000108172B6124AD2F808C00123BCF1000FDB
:100E900018BF037006D000291CBF10BC704762B693
:100EA00010BC704793604FF0E023D3F88041DFF827
:100EB00024C004EA0C041460C3F880C1D3F884C1D0
:100EC000C2F804C05A17C3F8842100220270E2E776
:100ED000EC370020FC06FFBC0C498A68002A08BFDA
:100EE0007047002818BF7047EFF3108072B60B6888
:100EF0004FF0E022C2F800314B68C2F80431002202
:100F00008A60002818BF704762B67047EC3700202F
:100F10002DE9F8430E4D0F4C00276668D5F80405FF
:100F2000616800EB016800F013F9D5F8040138B1ED
:100F3000C5F80471D5F8040100906068401C606039
:100F400000F050F96068B042E7D14046BDE8F88350
:100F500000100140343000202DE9F843144D154CA9
:100F60004FF000086768D5F80405616800EB01667A
:100F700000F0EEF8D5F8040138B1C5F80481D5F8D1
:100F8000040100906068401C606000F02BF960680C
:100F9000B842E7D10848A6FB001011F5804240F1A5
:100FA0000001D20B42EA4140C90BBDE8F8830000C2
:100FB000001001403430002040420F0038B5184D79
:100FC0002878002818BF38BD16491120FDF71CFFEE
:100FD000154C0020C4F80805C4F84001D4F84011AD
:100FE0000091C4F84801D4F848110091C4F80401F4
:100FF000D4F8040100900D48C4F804030220C4F89A
:1010000044034FF4A020C4F8480311200721CC3436
:1010100001F05AF8012044F8CC0C287038BD0000CB
:101020003430002049EE01000010014002000500AC
:101030002DE9F84F354D364C93468A4680460026BA
:10104000D4F80490D5F80405616800EB016700F05E
:101050007FF8D5F8040138B1C5F80461D5F804016A
:1010600000906068401C606000F0BCF86068484513
:10107000E6D1284AA7FB021011F5804140F100009B
:10108000C90B41EA4043C10B18EB0600714198457A
:1010900002D2001C41F10101C90341EA50411E4B3B
:1010A000C003C01841F100010023FBF78DF907468A
:1010B00000F04EF8D4F80480D5F80405616800EB20
:1010C000016900F045F8D5F8040138B1C5F80461AC
:1010D000D5F8040100906068401C606000F082F860
:1010E00060684045E6D109F10200391A0029D8BFED
:1010F000074627F07F4005EB8A01C1F84005C5F897
:1011000044B3BDE8F84F00F06DB800000010014096
:101110003430002040420F003F420F0070B50D46B2
:10112000044600F015F82088401B85B2258000F0A9
:1011300059F8284670BD70B50D46044600F008F811
:101140002088284485B2258000F04CF8284670BDE0
:101150001B48416819B14168491C4160704770B52E
:10116000EFF3108172B6174A94680123DFF850C07C
:10117000002C18BF8CF8003001D0A9B913E093609F
:101180004FF0E023D3F880510F4C25401560C3F891
:101190008041D3F8844154605A17C3F88421002257
:1011A0008CF80020E9E762B6416821B1282207499E
:1011B00007A0FBF733FC4168491C416070BD00008B
:1011C0000C300020EC370020FC06FFBC3C4602003F
:1011D0005F656E7472795F636F756E74203D3D203C
:1011E00030000000154810B5416809B34168491E38
:1011F00041604168002918BF10BD007810498A6815
:10120000002A08BF10BD002818BF10BDEFF31080E2
:1012100072B60B684FF0E022C2F800314B68C2F89A
:10122000043100228A60002818BF10BD62B610BDCC
:101230002E22044904A0FBF7F1FB00000C30002033
:10124000EC3700203C4602005F656E7472795F6384
:101250006F756E74203E2030000000000FB4084807
:1012600010B5017800291CBF10BC5DF814FB0121EA
:10127000017003A9029800F0FDFE012000F002F8C1
:10128000B2310020002818BF00F05CFEFEE70168C4
:10129000002901DCFCF789B9491E016041684A1C3C
:1012A0004260087870478A68002A01DCFCF76BBA54
:1012B000521E8A604A68C0B2531C4B60107070475F
:1012C0002DE9F0412D4C257815F0010F04BF0120C8
:1012D000BDE8F0810027F0B1DFF8A4C084459CBFD1
:1012E000DFF8A0C0604516D2002904BF0320BDE886
:1012F000F0810B051B0D1CBF0620BDE8F0810368C3
:101300008B4205D8D0F804C001EB0233634505D900
:101310000520BDE8F0810220BDE8F081002A04BF6D
:101320000420BDE8F081184B5E6D042E04BF072039
:10133000BDE8F081D3F850C0B444BCF1040F28BF1D
:101340004FF0000C761C0CEB8C0C5E6503EB8C03F1
:101350005F609F60DF601F61186002201871080BDA
:1013600018819A8115F0060F04D145F00200207013
:1013700001F054FE0020BDE8F0810000EC2F0020B9
:10138000D0310020E0310020DC330020084601F09D
:101390003DBB00002DE9F047314D2E7816F0010FCE
:1013A00004BF0120BDE8F0874FF0000908B32D4CC1
:1013B00084429CBF2C4CA0421BD20127002A12BFA2
:1013C00000290320BDE8F08742EA010C1CF0030F5E
:1013D0001CBF0620BDE8F087D0F800C08C4505D8BA
:1013E000D0F804C001EB8304644505D90520BDE8AD
:1013F000F0870220BDE8F087002B04BF0420BDE881
:10140000F087DFF868C0DCF85480B8F1040F04BF3F
:101410000720BDE8F087DCF850404444042C28BF86
:10142000002408F1010804EB8404CCF854800CEB90
:10143000840C16F0060FCCF80490CCF81090CCF881
:1014400000008CF80470CCE90221ACF8103004D113
:1014500046F00200287001F0E1FD0020BDE8F087B1
:10146000EC2F0020D0310020E0310020DC330020C0
:1014700070B52B4CDFF8ACC0231D62886068A4F106
:10148000200505EB021100281DBF468800EB8600F1
:101490000C30486808BF08304FF6FF7605EB0212A3
:1014A000526802F58052824222D90568B5F1FF3FA9
:1014B0001ED08588B5421CBF0588002D13D018604A
:1014C0006268BCF80410DCF8000000EB8101508871
:1014D00000F1030083B24FF003002070BDE87040BC
:1014E0001148FFF757BF458800EB85000C30DAE75D
:1014F000888960B1052020700220ACF80400DCF877
:101500000010BDE8704001220748FFF7D9BE4968C6
:1015100001220548FFF7D4FE0421217070BD0000B0
:10152000CC330020E42F0020D03100200048704749
:10153000D440020010B50248FBF7C7F910BD000007
:1015400064410020F8B52B4F04464FF00103395D8C
:10155000294D11F0210F03FA04F604BF2868B043A7
:1015600046D011F0020F4FF0000002D011F0200F12
:1015700033D08DF8030003228DF802008DF800208F
:1015800011F0200F12D08DF801201C4A6946204628
:1015900000F076FEA86806421CBF385D10F0C00F50
:1015A00024D00121204600F009FE1FE0C1F3C10153
:1015B000012908BF8DF8013005D0032914BF8DF82B
:1015C00001008DF801209DF8011040EA8100A10082
:1015D00001F1A041C1F8000708E00090C1F38000CC
:1015E0008DF801006946204600F036FF2868304338
:1015F0002860F8BDB4340020F02F0020311902001B
:1016000070B5044690F900000E46B0F1FF3F04D1DA
:10161000B722114911A000F06BFC164A2078012175
:1016200012688140144D114208D0295C11F0020F5C
:1016300002D011F0200F0CD000F094FE94F90000BD
:10164000295C66F3410129542078BDE87040FFF71A
:1016500079BF00F073FFF1E72C4502006F626A2D3D
:101660003E70696E20213D202850696E4E616D6587
:10167000294E4300F02F0020B434002010B504465A
:101680000170B1F1FF3F08BF10BD202904D35322E0
:10169000084909A000F02CFC0F490620FDF7B4FB17
:1016A00000F0AAFE94F900100C48425C42F00102DE
:1016B000425410BD2C4502002875696E7433325FA8
:1016C000742970696E203C204750494F5F50494E45
:1016D0005F434F554E54000089EC0100B4340020A4
:1016E00070B5032605460C46FFF7C8FFB4F1FF3F6F
:1016F00008BF70BD00212846FFF782FF314628460B
:10170000BDE8704000F0D6B870B504460D4600261E
:10171000FFF7B4FFB5F1FF3F08BF70BD94F90000BB
:10172000B0F1FF3F04D1202209490A4800F0E0FB54
:101730002078012101FA00F00749086001212046C4
:10174000FFF75EFF31462046BDE8704000F0B2B8BA
:10175000D4450200B41702000C0500502DE9F041F9
:1017600004460E4600271546FFF788FFB6F1FF3FF7
:1017700008BFBDE8F08194F90000B0F1FF3F04D14B
:1017800020220B490BA000F0B3FB01202178002D93
:1017900000FA01F014BF0D490D49086001212046EF
:1017A000FFF72EFF39462046BDE8F04100F082B831
:1017B000D44502006F626A2D3E70696E20213D2083
:1017C0002850696E4E616D65294E43000805005032
:1017D0000C05005010B50446006800F0C3FD084831
:1017E0002168425C22F020024254064A216800200F
:1017F00042F821002078BDE81040FFF7A3BE0000AA
:10180000B4340020343400202DE9F0471D469046C2
:101810000C468146B1F1FF3F04BF4FF0FF30BDE8F9
:10182000F087202C04D3C922164917A000F060FBD2
:1018300000F0E2FD1C4FE0B201213A6881401B4EEE
:10184000114208D0315C11F0020F02D011F0200FCC
:1018500014D000F087FD305D40F020003055144872
:1018600040F82450C9F80040C7F8048040F82450DC
:10187000E0B2FFF767FE0120BDE8F08700F05EFEF2
:10188000E9E700002C4502002875696E7433325F69
:10189000742970696E203C204750494F5F50494E73
:1018A0005F434F554E540000F02F0020B434002009
:1018B0003434002070B5044690F900000E46B0F1B3
:1018C000FF3F04D1AC22114911A000F011FB164AD0
:1018D0002078012112688140144D114208D0295C02
:1018E00011F0020F02D011F0200F0CD000F03AFDE1
:1018F00094F90000295C66F3C40129542078BDE8FE
:101900007040FFF71FBE00F019FEF1E72C45020002
:101910006F626A2D3E70696E20213D202850696EED
:101920004E616D65294E4300F02F0020B434002035
:10193000810001F1A041D1F80017C1F30141032951
:101940000CBF01210221012202FA00F30D4AD2F854
:1019500008C013EA0C0F08BF70470B4B01290CD0CD
:10196000022918BF70471B5C13F0400F08BF704777
:10197000064B526853F8200010471B5C13F0800F91
:10198000F6D17047F02F0020B4340020343400200A
:101990002DE9F05F06467A4F7A4C91468846002042
:1019A0004FF0CC7A00EB800101EBC00114F821204C
:1019B0006AB304EB81014A68424504BF896849451E
:1019C00025D1C0B2307000EB800101EBC00004EB08
:1019D00080004FF00002C0F80CA0307800EB8001CE
:1019E00001EBC00157F8200004EB8101C0F800258D
:1019F000D1E90123C0F80835C0F80C25C968C0F842
:101A000024154FF00501C0F80015BDE8F09F00F166
:101A100001000228C6DBDFF870B1002505EB850068
:101A200000EBC50014F8200030B95BF8251057F81A
:101A3000250000F065FB38B16D1C022DEEDBBDE822
:101A4000F05F52A0FFF70ABCE8B200EB80013070F3
:101A500001EBC0014B484FF0010B00EB810400206B
:101A600084F800B0C4F80CA0C4E901892074607443
:101A70002079DFF838910BFA00F0C9F800006068AF
:101A800040F20D61800000F1A040C0F80017DFF8BF
:101A900020A12079DAF8002022FA00F010F0010FDE
:101AA00038D1A0680BFA00F2C9F80020800000F1DC
:101AB000A040C0F800170420FAF7DAFB4FF0000846
:101AC0002079DAF8001021FA00F010F0010F14D19B
